{
	"contracts/Charity.sol": {
		"charity": {
			"abi": [
				{
					"inputs": [],
					"stateMutability": "nonpayable",
					"type": "constructor"
				},
				{
					"inputs": [
						{
							"internalType": "uint256",
							"name": "",
							"type": "uint256"
						}
					],
					"name": "charities",
					"outputs": [
						{
							"internalType": "string",
							"name": "name",
							"type": "string"
						},
						{
							"internalType": "address payable",
							"name": "charityAddress",
							"type": "address"
						},
						{
							"internalType": "uint256",
							"name": "totalDonations",
							"type": "uint256"
						},
						{
							"internalType": "uint256",
							"name": "fundsWithdrawn",
							"type": "uint256"
						}
					],
					"stateMutability": "view",
					"type": "function"
				},
				{
					"inputs": [],
					"name": "charityCount",
					"outputs": [
						{
							"internalType": "uint256",
							"name": "",
							"type": "uint256"
						}
					],
					"stateMutability": "view",
					"type": "function"
				},
				{
					"inputs": [
						{
							"internalType": "string",
							"name": "_name",
							"type": "string"
						}
					],
					"name": "createCharity",
					"outputs": [],
					"stateMutability": "nonpayable",
					"type": "function"
				},
				{
					"inputs": [
						{
							"internalType": "uint256",
							"name": "charityIndex",
							"type": "uint256"
						}
					],
					"name": "donate",
					"outputs": [],
					"stateMutability": "payable",
					"type": "function"
				},
				{
					"inputs": [
						{
							"internalType": "uint256",
							"name": "charityIndex",
							"type": "uint256"
						}
					],
					"name": "withdraw",
					"outputs": [],
					"stateMutability": "payable",
					"type": "function"
				}
			],
			"devdoc": {
				"kind": "dev",
				"methods": {},
				"version": 1
			},
			"evm": {
				"assembly": "    /* \"contracts/Charity.sol\":68:1350  contract charity {... */\n  mstore(0x40, 0x80)\n    /* \"contracts/Charity.sol\":141:142  0 */\n  0x00\n    /* \"contracts/Charity.sol\":114:142  uint public charityCount = 0 */\n  0x01\n  sstore\n    /* \"contracts/Charity.sol\":151:202  constructor() {... */\n  callvalue\n  dup1\n  iszero\n  tag_1\n  jumpi\n  revert(0x00, 0x00)\ntag_1:\n  pop\n    /* \"contracts/Charity.sol\":184:194  msg.sender */\n  caller\n    /* \"contracts/Charity.sol\":176:181  owner */\n  0x00\n  0x00\n    /* \"contracts/Charity.sol\":176:194  owner = msg.sender */\n  0x0100\n  exp\n  dup2\n  sload\n  dup2\n  0xffffffffffffffffffffffffffffffffffffffff\n  mul\n  not\n  and\n  swap1\n  dup4\n  0xffffffffffffffffffffffffffffffffffffffff\n  and\n  mul\n  or\n  swap1\n  sstore\n  pop\n    /* \"contracts/Charity.sol\":68:1350  contract charity {... */\n  dataSize(sub_0)\n  dup1\n  dataOffset(sub_0)\n  0x00\n  codecopy\n  0x00\n  return\nstop\n\nsub_0: assembly {\n        /* \"contracts/Charity.sol\":68:1350  contract charity {... */\n      mstore(0x40, 0x80)\n      jumpi(tag_1, lt(calldatasize, 0x04))\n      shr(0xe0, calldataload(0x00))\n      dup1\n      0x2e1a7d4d\n      eq\n      tag_2\n      jumpi\n      dup1\n      0x64be5548\n      eq\n      tag_3\n      jumpi\n      dup1\n      0x91329493\n      eq\n      tag_4\n      jumpi\n      dup1\n      0xf14faf6f\n      eq\n      tag_5\n      jumpi\n      dup1\n      0xfb709d2e\n      eq\n      tag_6\n      jumpi\n    tag_1:\n      revert(0x00, 0x00)\n        /* \"contracts/Charity.sol\":1026:1347  function withdraw(uint charityIndex) public payable{... */\n    tag_2:\n      tag_7\n      0x04\n      dup1\n      calldatasize\n      sub\n      dup2\n      add\n      swap1\n      tag_8\n      swap2\n      swap1\n      tag_9\n      jump\t// in\n    tag_8:\n      tag_10\n      jump\t// in\n    tag_7:\n      stop\n        /* \"contracts/Charity.sol\":463:703  function createCharity(string memory _name) public {... */\n    tag_3:\n      callvalue\n      dup1\n      iszero\n      tag_11\n      jumpi\n      revert(0x00, 0x00)\n    tag_11:\n      pop\n      tag_12\n      0x04\n      dup1\n      calldatasize\n      sub\n      dup2\n      add\n      swap1\n      tag_13\n      swap2\n      swap1\n      tag_14\n      jump\t// in\n    tag_13:\n      tag_15\n      jump\t// in\n    tag_12:\n      stop\n        /* \"contracts/Charity.sol\":114:142  uint public charityCount = 0 */\n    tag_4:\n      callvalue\n      dup1\n      iszero\n      tag_16\n      jumpi\n      revert(0x00, 0x00)\n    tag_16:\n      pop\n      tag_17\n      tag_18\n      jump\t// in\n    tag_17:\n      mload(0x40)\n      tag_19\n      swap2\n      swap1\n      tag_20\n      jump\t// in\n    tag_19:\n      mload(0x40)\n      dup1\n      swap2\n      sub\n      swap1\n      return\n        /* \"contracts/Charity.sol\":711:1018  function donate(uint charityIndex) public payable{... */\n    tag_5:\n      tag_21\n      0x04\n      dup1\n      calldatasize\n      sub\n      dup2\n      add\n      swap1\n      tag_22\n      swap2\n      swap1\n      tag_9\n      jump\t// in\n    tag_22:\n      tag_23\n      jump\t// in\n    tag_21:\n      stop\n        /* \"contracts/Charity.sol\":413:454  mapping(uint => Charity) public charities */\n    tag_6:\n      callvalue\n      dup1\n      iszero\n      tag_24\n      jumpi\n      revert(0x00, 0x00)\n    tag_24:\n      pop\n      tag_25\n      0x04\n      dup1\n      calldatasize\n      sub\n      dup2\n      add\n      swap1\n      tag_26\n      swap2\n      swap1\n      tag_9\n      jump\t// in\n    tag_26:\n      tag_27\n      jump\t// in\n    tag_25:\n      mload(0x40)\n      tag_28\n      swap5\n      swap4\n      swap3\n      swap2\n      swap1\n      tag_29\n      jump\t// in\n    tag_28:\n      mload(0x40)\n      dup1\n      swap2\n      sub\n      swap1\n      return\n        /* \"contracts/Charity.sol\":1026:1347  function withdraw(uint charityIndex) public payable{... */\n    tag_10:\n        /* \"contracts/Charity.sol\":1110:1119  charities */\n      0x02\n        /* \"contracts/Charity.sol\":1110:1133  charities[charityIndex] */\n      0x00\n        /* \"contracts/Charity.sol\":1120:1132  charityIndex */\n      dup3\n        /* \"contracts/Charity.sol\":1110:1133  charities[charityIndex] */\n      dup2\n      mstore\n      0x20\n      add\n      swap1\n      dup2\n      mstore\n      0x20\n      add\n      0x00\n      keccak256\n        /* \"contracts/Charity.sol\":1110:1148  charities[charityIndex].charityAddress */\n      0x01\n      add\n      0x00\n      swap1\n      sload\n      swap1\n      0x0100\n      exp\n      swap1\n      div\n      0xffffffffffffffffffffffffffffffffffffffff\n      and\n        /* \"contracts/Charity.sol\":1096:1148  msg.sender == charities[charityIndex].charityAddress */\n      0xffffffffffffffffffffffffffffffffffffffff\n      and\n        /* \"contracts/Charity.sol\":1096:1106  msg.sender */\n      caller\n        /* \"contracts/Charity.sol\":1096:1148  msg.sender == charities[charityIndex].charityAddress */\n      0xffffffffffffffffffffffffffffffffffffffff\n      and\n      eq\n        /* \"contracts/Charity.sol\":1088:1170  require(msg.sender == charities[charityIndex].charityAddress, \"You are not owner\") */\n      tag_31\n      jumpi\n      mload(0x40)\n      0x08c379a000000000000000000000000000000000000000000000000000000000\n      dup2\n      mstore\n      0x04\n      add\n      tag_32\n      swap1\n      tag_33\n      jump\t// in\n    tag_32:\n      mload(0x40)\n      dup1\n      swap2\n      sub\n      swap1\n      revert\n    tag_31:\n        /* \"contracts/Charity.sol\":1181:1193  uint balance */\n      0x00\n        /* \"contracts/Charity.sol\":1196:1217  address(this).balance */\n      selfbalance\n        /* \"contracts/Charity.sol\":1181:1217  uint balance = address(this).balance */\n      swap1\n      pop\n        /* \"contracts/Charity.sol\":1237:1247  msg.sender */\n      caller\n        /* \"contracts/Charity.sol\":1228:1257  payable (msg.sender).transfer */\n      0xffffffffffffffffffffffffffffffffffffffff\n      and\n        /* \"contracts/Charity.sol\":1228:1266  payable (msg.sender).transfer(balance) */\n      0x08fc\n        /* \"contracts/Charity.sol\":1258:1265  balance */\n      dup3\n        /* \"contracts/Charity.sol\":1228:1266  payable (msg.sender).transfer(balance) */\n      swap1\n      dup2\n      iszero\n      mul\n      swap1\n      mload(0x40)\n      0x00\n      mload(0x40)\n      dup1\n      dup4\n      sub\n      dup2\n      dup6\n      dup9\n      dup9\n      call\n      swap4\n      pop\n      pop\n      pop\n      pop\n      iszero\n      dup1\n      iszero\n      tag_35\n      jumpi\n      returndatacopy(0x00, 0x00, returndatasize)\n      revert(0x00, returndatasize)\n    tag_35:\n      pop\n        /* \"contracts/Charity.sol\":1318:1339  address(this).balance */\n      selfbalance\n        /* \"contracts/Charity.sol\":1277:1286  charities */\n      0x02\n        /* \"contracts/Charity.sol\":1277:1300  charities[charityIndex] */\n      0x00\n        /* \"contracts/Charity.sol\":1287:1299  charityIndex */\n      dup5\n        /* \"contracts/Charity.sol\":1277:1300  charities[charityIndex] */\n      dup2\n      mstore\n      0x20\n      add\n      swap1\n      dup2\n      mstore\n      0x20\n      add\n      0x00\n      keccak256\n        /* \"contracts/Charity.sol\":1277:1315  charities[charityIndex].totalDonations */\n      0x02\n      add\n        /* \"contracts/Charity.sol\":1277:1339  charities[charityIndex].totalDonations = address(this).balance */\n      dup2\n      swap1\n      sstore\n      pop\n        /* \"contracts/Charity.sol\":1077:1347  {... */\n      pop\n        /* \"contracts/Charity.sol\":1026:1347  function withdraw(uint charityIndex) public payable{... */\n      pop\n      jump\t// out\n        /* \"contracts/Charity.sol\":463:703  function createCharity(string memory _name) public {... */\n    tag_15:\n        /* \"contracts/Charity.sol\":525:551  Charity storage newCharity */\n      0x00\n        /* \"contracts/Charity.sol\":554:563  charities */\n      0x02\n        /* \"contracts/Charity.sol\":554:577  charities[charityCount] */\n      0x00\n        /* \"contracts/Charity.sol\":564:576  charityCount */\n      sload(0x01)\n        /* \"contracts/Charity.sol\":554:577  charities[charityCount] */\n      dup2\n      mstore\n      0x20\n      add\n      swap1\n      dup2\n      mstore\n      0x20\n      add\n      0x00\n      keccak256\n        /* \"contracts/Charity.sol\":525:577  Charity storage newCharity = charities[charityCount] */\n      swap1\n      pop\n        /* \"contracts/Charity.sol\":607:612  _name */\n      dup2\n        /* \"contracts/Charity.sol\":589:599  newCharity */\n      dup2\n        /* \"contracts/Charity.sol\":589:604  newCharity.name */\n      0x00\n      add\n        /* \"contracts/Charity.sol\":589:612  newCharity.name = _name */\n      swap1\n      dup2\n      tag_37\n      swap2\n      swap1\n      tag_38\n      jump\t// in\n    tag_37:\n      pop\n        /* \"contracts/Charity.sol\":659:669  msg.sender */\n      caller\n        /* \"contracts/Charity.sol\":623:633  newCharity */\n      dup2\n        /* \"contracts/Charity.sol\":623:648  newCharity.charityAddress */\n      0x01\n      add\n      0x00\n        /* \"contracts/Charity.sol\":623:670  newCharity.charityAddress =payable (msg.sender) */\n      0x0100\n      exp\n      dup2\n      sload\n      dup2\n      0xffffffffffffffffffffffffffffffffffffffff\n      mul\n      not\n      and\n      swap1\n      dup4\n      0xffffffffffffffffffffffffffffffffffffffff\n      and\n      mul\n      or\n      swap1\n      sstore\n      pop\n        /* \"contracts/Charity.sol\":681:693  charityCount */\n      0x01\n      0x00\n        /* \"contracts/Charity.sol\":681:695  charityCount++ */\n      dup2\n      sload\n      dup1\n      swap3\n      swap2\n      swap1\n      tag_39\n      swap1\n      tag_40\n      jump\t// in\n    tag_39:\n      swap2\n      swap1\n      pop\n      sstore\n      pop\n        /* \"contracts/Charity.sol\":514:703  {... */\n      pop\n        /* \"contracts/Charity.sol\":463:703  function createCharity(string memory _name) public {... */\n      pop\n      jump\t// out\n        /* \"contracts/Charity.sol\":114:142  uint public charityCount = 0 */\n    tag_18:\n      sload(0x01)\n      dup2\n      jump\t// out\n        /* \"contracts/Charity.sol\":711:1018  function donate(uint charityIndex) public payable{... */\n    tag_23:\n        /* \"contracts/Charity.sol\":771:783  uint _amount */\n      0x00\n        /* \"contracts/Charity.sol\":786:795  msg.value */\n      callvalue\n        /* \"contracts/Charity.sol\":771:795  uint _amount = msg.value */\n      swap1\n      pop\n        /* \"contracts/Charity.sol\":826:835  0.1 ether */\n      0x016345785d8a0000\n        /* \"contracts/Charity.sol\":814:823  msg.value */\n      callvalue\n        /* \"contracts/Charity.sol\":814:835  msg.value > 0.1 ether */\n      gt\n        /* \"contracts/Charity.sol\":806:864  require(msg.value > 0.1 ether, \"Amount less than minimum\") */\n      tag_42\n      jumpi\n      mload(0x40)\n      0x08c379a000000000000000000000000000000000000000000000000000000000\n      dup2\n      mstore\n      0x04\n      add\n      tag_43\n      swap1\n      tag_44\n      jump\t// in\n    tag_43:\n      mload(0x40)\n      dup1\n      swap2\n      sub\n      swap1\n      revert\n    tag_42:\n        /* \"contracts/Charity.sol\":926:947  address(this).balance */\n      selfbalance\n        /* \"contracts/Charity.sol\":885:894  charities */\n      0x02\n        /* \"contracts/Charity.sol\":885:908  charities[charityIndex] */\n      0x00\n        /* \"contracts/Charity.sol\":895:907  charityIndex */\n      dup5\n        /* \"contracts/Charity.sol\":885:908  charities[charityIndex] */\n      dup2\n      mstore\n      0x20\n      add\n      swap1\n      dup2\n      mstore\n      0x20\n      add\n      0x00\n      keccak256\n        /* \"contracts/Charity.sol\":885:923  charities[charityIndex].totalDonations */\n      0x02\n      add\n        /* \"contracts/Charity.sol\":885:947  charities[charityIndex].totalDonations = address(this).balance */\n      dup2\n      swap1\n      sstore\n      pop\n        /* \"contracts/Charity.sol\":1003:1010  _amount */\n      dup1\n        /* \"contracts/Charity.sol\":958:967  charities */\n      0x02\n        /* \"contracts/Charity.sol\":958:981  charities[charityIndex] */\n      0x00\n        /* \"contracts/Charity.sol\":968:980  charityIndex */\n      dup5\n        /* \"contracts/Charity.sol\":958:981  charities[charityIndex] */\n      dup2\n      mstore\n      0x20\n      add\n      swap1\n      dup2\n      mstore\n      0x20\n      add\n      0x00\n      keccak256\n        /* \"contracts/Charity.sol\":958:988  charities[charityIndex].donors */\n      0x04\n      add\n        /* \"contracts/Charity.sol\":958:1000  charities[charityIndex].donors[msg.sender] */\n      0x00\n        /* \"contracts/Charity.sol\":989:999  msg.sender */\n      caller\n        /* \"contracts/Charity.sol\":958:1000  charities[charityIndex].donors[msg.sender] */\n      0xffffffffffffffffffffffffffffffffffffffff\n      and\n      0xffffffffffffffffffffffffffffffffffffffff\n      and\n      dup2\n      mstore\n      0x20\n      add\n      swap1\n      dup2\n      mstore\n      0x20\n      add\n      0x00\n      keccak256\n        /* \"contracts/Charity.sol\":958:1010  charities[charityIndex].donors[msg.sender] = _amount */\n      dup2\n      swap1\n      sstore\n      pop\n        /* \"contracts/Charity.sol\":760:1018  {... */\n      pop\n        /* \"contracts/Charity.sol\":711:1018  function donate(uint charityIndex) public payable{... */\n      pop\n      jump\t// out\n        /* \"contracts/Charity.sol\":413:454  mapping(uint => Charity) public charities */\n    tag_27:\n      mstore(0x20, 0x02)\n      dup1\n      0x00\n      mstore\n      keccak256(0x00, 0x40)\n      0x00\n      swap2\n      pop\n      swap1\n      pop\n      dup1\n      0x00\n      add\n      dup1\n      sload\n      tag_45\n      swap1\n      tag_46\n      jump\t// in\n    tag_45:\n      dup1\n      0x1f\n      add\n      0x20\n      dup1\n      swap2\n      div\n      mul\n      0x20\n      add\n      mload(0x40)\n      swap1\n      dup2\n      add\n      0x40\n      mstore\n      dup1\n      swap3\n      swap2\n      swap1\n      dup2\n      dup2\n      mstore\n      0x20\n      add\n      dup3\n      dup1\n      sload\n      tag_47\n      swap1\n      tag_46\n      jump\t// in\n    tag_47:\n      dup1\n      iszero\n      tag_48\n      jumpi\n      dup1\n      0x1f\n      lt\n      tag_49\n      jumpi\n      0x0100\n      dup1\n      dup4\n      sload\n      div\n      mul\n      dup4\n      mstore\n      swap2\n      0x20\n      add\n      swap2\n      jump(tag_48)\n    tag_49:\n      dup3\n      add\n      swap2\n      swap1\n      0x00\n      mstore\n      keccak256(0x00, 0x20)\n      swap1\n    tag_50:\n      dup2\n      sload\n      dup2\n      mstore\n      swap1\n      0x01\n      add\n      swap1\n      0x20\n      add\n      dup1\n      dup4\n      gt\n      tag_50\n      jumpi\n      dup3\n      swap1\n      sub\n      0x1f\n      and\n      dup3\n      add\n      swap2\n    tag_48:\n      pop\n      pop\n      pop\n      pop\n      pop\n      swap1\n      dup1\n      0x01\n      add\n      0x00\n      swap1\n      sload\n      swap1\n      0x0100\n      exp\n      swap1\n      div\n      0xffffffffffffffffffffffffffffffffffffffff\n      and\n      swap1\n      dup1\n      0x02\n      add\n      sload\n      swap1\n      dup1\n      0x03\n      add\n      sload\n      swap1\n      pop\n      dup5\n      jump\t// out\n        /* \"#utility.yul\":7:82   */\n    tag_51:\n        /* \"#utility.yul\":40:46   */\n      0x00\n        /* \"#utility.yul\":73:75   */\n      0x40\n        /* \"#utility.yul\":67:76   */\n      mload\n        /* \"#utility.yul\":57:76   */\n      swap1\n      pop\n        /* \"#utility.yul\":7:82   */\n      swap1\n      jump\t// out\n        /* \"#utility.yul\":88:205   */\n    tag_52:\n        /* \"#utility.yul\":197:198   */\n      0x00\n        /* \"#utility.yul\":194:195   */\n      0x00\n        /* \"#utility.yul\":187:199   */\n      revert\n        /* \"#utility.yul\":211:328   */\n    tag_53:\n        /* \"#utility.yul\":320:321   */\n      0x00\n        /* \"#utility.yul\":317:318   */\n      0x00\n        /* \"#utility.yul\":310:322   */\n      revert\n        /* \"#utility.yul\":334:411   */\n    tag_54:\n        /* \"#utility.yul\":371:378   */\n      0x00\n        /* \"#utility.yul\":400:405   */\n      dup2\n        /* \"#utility.yul\":389:405   */\n      swap1\n      pop\n        /* \"#utility.yul\":334:411   */\n      swap2\n      swap1\n      pop\n      jump\t// out\n        /* \"#utility.yul\":417:539   */\n    tag_55:\n        /* \"#utility.yul\":490:514   */\n      tag_102\n        /* \"#utility.yul\":508:513   */\n      dup2\n        /* \"#utility.yul\":490:514   */\n      tag_54\n      jump\t// in\n    tag_102:\n        /* \"#utility.yul\":483:488   */\n      dup2\n        /* \"#utility.yul\":480:515   */\n      eq\n        /* \"#utility.yul\":470:533   */\n      tag_103\n      jumpi\n        /* \"#utility.yul\":529:530   */\n      0x00\n        /* \"#utility.yul\":526:527   */\n      0x00\n        /* \"#utility.yul\":519:531   */\n      revert\n        /* \"#utility.yul\":470:533   */\n    tag_103:\n        /* \"#utility.yul\":417:539   */\n      pop\n      jump\t// out\n        /* \"#utility.yul\":545:684   */\n    tag_56:\n        /* \"#utility.yul\":591:596   */\n      0x00\n        /* \"#utility.yul\":629:635   */\n      dup2\n        /* \"#utility.yul\":616:636   */\n      calldataload\n        /* \"#utility.yul\":607:636   */\n      swap1\n      pop\n        /* \"#utility.yul\":645:678   */\n      tag_105\n        /* \"#utility.yul\":672:677   */\n      dup2\n        /* \"#utility.yul\":645:678   */\n      tag_55\n      jump\t// in\n    tag_105:\n        /* \"#utility.yul\":545:684   */\n      swap3\n      swap2\n      pop\n      pop\n      jump\t// out\n        /* \"#utility.yul\":690:1019   */\n    tag_9:\n        /* \"#utility.yul\":749:755   */\n      0x00\n        /* \"#utility.yul\":798:800   */\n      0x20\n        /* \"#utility.yul\":786:795   */\n      dup3\n        /* \"#utility.yul\":777:784   */\n      dup5\n        /* \"#utility.yul\":773:796   */\n      sub\n        /* \"#utility.yul\":769:801   */\n      slt\n        /* \"#utility.yul\":766:885   */\n      iszero\n      tag_107\n      jumpi\n        /* \"#utility.yul\":804:883   */\n      tag_108\n      tag_52\n      jump\t// in\n    tag_108:\n        /* \"#utility.yul\":766:885   */\n    tag_107:\n        /* \"#utility.yul\":924:925   */\n      0x00\n        /* \"#utility.yul\":949:1002   */\n      tag_109\n        /* \"#utility.yul\":994:1001   */\n      dup5\n        /* \"#utility.yul\":985:991   */\n      dup3\n        /* \"#utility.yul\":974:983   */\n      dup6\n        /* \"#utility.yul\":970:992   */\n      add\n        /* \"#utility.yul\":949:1002   */\n      tag_56\n      jump\t// in\n    tag_109:\n        /* \"#utility.yul\":939:1002   */\n      swap2\n      pop\n        /* \"#utility.yul\":895:1012   */\n      pop\n        /* \"#utility.yul\":690:1019   */\n      swap3\n      swap2\n      pop\n      pop\n      jump\t// out\n        /* \"#utility.yul\":1025:1142   */\n    tag_57:\n        /* \"#utility.yul\":1134:1135   */\n      0x00\n        /* \"#utility.yul\":1131:1132   */\n      0x00\n        /* \"#utility.yul\":1124:1136   */\n      revert\n        /* \"#utility.yul\":1148:1265   */\n    tag_58:\n        /* \"#utility.yul\":1257:1258   */\n      0x00\n        /* \"#utility.yul\":1254:1255   */\n      0x00\n        /* \"#utility.yul\":1247:1259   */\n      revert\n        /* \"#utility.yul\":1271:1373   */\n    tag_59:\n        /* \"#utility.yul\":1312:1318   */\n      0x00\n        /* \"#utility.yul\":1363:1365   */\n      0x1f\n        /* \"#utility.yul\":1359:1366   */\n      not\n        /* \"#utility.yul\":1354:1356   */\n      0x1f\n        /* \"#utility.yul\":1347:1352   */\n      dup4\n        /* \"#utility.yul\":1343:1357   */\n      add\n        /* \"#utility.yul\":1339:1367   */\n      and\n        /* \"#utility.yul\":1329:1367   */\n      swap1\n      pop\n        /* \"#utility.yul\":1271:1373   */\n      swap2\n      swap1\n      pop\n      jump\t// out\n        /* \"#utility.yul\":1379:1559   */\n    tag_60:\n        /* \"#utility.yul\":1427:1504   */\n      0x4e487b7100000000000000000000000000000000000000000000000000000000\n        /* \"#utility.yul\":1424:1425   */\n      0x00\n        /* \"#utility.yul\":1417:1505   */\n      mstore\n        /* \"#utility.yul\":1524:1528   */\n      0x41\n        /* \"#utility.yul\":1521:1522   */\n      0x04\n        /* \"#utility.yul\":1514:1529   */\n      mstore\n        /* \"#utility.yul\":1548:1552   */\n      0x24\n        /* \"#utility.yul\":1545:1546   */\n      0x00\n        /* \"#utility.yul\":1538:1553   */\n      revert\n        /* \"#utility.yul\":1565:1846   */\n    tag_61:\n        /* \"#utility.yul\":1648:1675   */\n      tag_115\n        /* \"#utility.yul\":1670:1674   */\n      dup3\n        /* \"#utility.yul\":1648:1675   */\n      tag_59\n      jump\t// in\n    tag_115:\n        /* \"#utility.yul\":1640:1646   */\n      dup2\n        /* \"#utility.yul\":1636:1676   */\n      add\n        /* \"#utility.yul\":1778:1784   */\n      dup2\n        /* \"#utility.yul\":1766:1776   */\n      dup2\n        /* \"#utility.yul\":1763:1785   */\n      lt\n        /* \"#utility.yul\":1742:1760   */\n      0xffffffffffffffff\n        /* \"#utility.yul\":1730:1740   */\n      dup3\n        /* \"#utility.yul\":1727:1761   */\n      gt\n        /* \"#utility.yul\":1724:1786   */\n      or\n        /* \"#utility.yul\":1721:1809   */\n      iszero\n      tag_116\n      jumpi\n        /* \"#utility.yul\":1789:1807   */\n      tag_117\n      tag_60\n      jump\t// in\n    tag_117:\n        /* \"#utility.yul\":1721:1809   */\n    tag_116:\n        /* \"#utility.yul\":1829:1839   */\n      dup1\n        /* \"#utility.yul\":1825:1827   */\n      0x40\n        /* \"#utility.yul\":1818:1840   */\n      mstore\n        /* \"#utility.yul\":1608:1846   */\n      pop\n        /* \"#utility.yul\":1565:1846   */\n      pop\n      pop\n      jump\t// out\n        /* \"#utility.yul\":1852:1981   */\n    tag_62:\n        /* \"#utility.yul\":1886:1892   */\n      0x00\n        /* \"#utility.yul\":1913:1933   */\n      tag_119\n      tag_51\n      jump\t// in\n    tag_119:\n        /* \"#utility.yul\":1903:1933   */\n      swap1\n      pop\n        /* \"#utility.yul\":1942:1975   */\n      tag_120\n        /* \"#utility.yul\":1970:1974   */\n      dup3\n        /* \"#utility.yul\":1962:1968   */\n      dup3\n        /* \"#utility.yul\":1942:1975   */\n      tag_61\n      jump\t// in\n    tag_120:\n        /* \"#utility.yul\":1852:1981   */\n      swap2\n      swap1\n      pop\n      jump\t// out\n        /* \"#utility.yul\":1987:2295   */\n    tag_63:\n        /* \"#utility.yul\":2049:2053   */\n      0x00\n        /* \"#utility.yul\":2139:2157   */\n      0xffffffffffffffff\n        /* \"#utility.yul\":2131:2137   */\n      dup3\n        /* \"#utility.yul\":2128:2158   */\n      gt\n        /* \"#utility.yul\":2125:2181   */\n      iszero\n      tag_122\n      jumpi\n        /* \"#utility.yul\":2161:2179   */\n      tag_123\n      tag_60\n      jump\t// in\n    tag_123:\n        /* \"#utility.yul\":2125:2181   */\n    tag_122:\n        /* \"#utility.yul\":2199:2228   */\n      tag_124\n        /* \"#utility.yul\":2221:2227   */\n      dup3\n        /* \"#utility.yul\":2199:2228   */\n      tag_59\n      jump\t// in\n    tag_124:\n        /* \"#utility.yul\":2191:2228   */\n      swap1\n      pop\n        /* \"#utility.yul\":2283:2287   */\n      0x20\n        /* \"#utility.yul\":2277:2281   */\n      dup2\n        /* \"#utility.yul\":2273:2288   */\n      add\n        /* \"#utility.yul\":2265:2288   */\n      swap1\n      pop\n        /* \"#utility.yul\":1987:2295   */\n      swap2\n      swap1\n      pop\n      jump\t// out\n        /* \"#utility.yul\":2301:2449   */\n    tag_64:\n        /* \"#utility.yul\":2399:2405   */\n      dup3\n        /* \"#utility.yul\":2394:2397   */\n      dup2\n        /* \"#utility.yul\":2389:2392   */\n      dup4\n        /* \"#utility.yul\":2376:2406   */\n      calldatacopy\n        /* \"#utility.yul\":2440:2441   */\n      0x00\n        /* \"#utility.yul\":2431:2437   */\n      dup4\n        /* \"#utility.yul\":2426:2429   */\n      dup4\n        /* \"#utility.yul\":2422:2438   */\n      add\n        /* \"#utility.yul\":2415:2442   */\n      mstore\n        /* \"#utility.yul\":2301:2449   */\n      pop\n      pop\n      pop\n      jump\t// out\n        /* \"#utility.yul\":2455:2880   */\n    tag_65:\n        /* \"#utility.yul\":2533:2538   */\n      0x00\n        /* \"#utility.yul\":2558:2624   */\n      tag_127\n        /* \"#utility.yul\":2574:2623   */\n      tag_128\n        /* \"#utility.yul\":2616:2622   */\n      dup5\n        /* \"#utility.yul\":2574:2623   */\n      tag_63\n      jump\t// in\n    tag_128:\n        /* \"#utility.yul\":2558:2624   */\n      tag_62\n      jump\t// in\n    tag_127:\n        /* \"#utility.yul\":2549:2624   */\n      swap1\n      pop\n        /* \"#utility.yul\":2647:2653   */\n      dup3\n        /* \"#utility.yul\":2640:2645   */\n      dup2\n        /* \"#utility.yul\":2633:2654   */\n      mstore\n        /* \"#utility.yul\":2685:2689   */\n      0x20\n        /* \"#utility.yul\":2678:2683   */\n      dup2\n        /* \"#utility.yul\":2674:2690   */\n      add\n        /* \"#utility.yul\":2723:2726   */\n      dup5\n        /* \"#utility.yul\":2714:2720   */\n      dup5\n        /* \"#utility.yul\":2709:2712   */\n      dup5\n        /* \"#utility.yul\":2705:2721   */\n      add\n        /* \"#utility.yul\":2702:2727   */\n      gt\n        /* \"#utility.yul\":2699:2811   */\n      iszero\n      tag_129\n      jumpi\n        /* \"#utility.yul\":2730:2809   */\n      tag_130\n      tag_58\n      jump\t// in\n    tag_130:\n        /* \"#utility.yul\":2699:2811   */\n    tag_129:\n        /* \"#utility.yul\":2820:2874   */\n      tag_131\n        /* \"#utility.yul\":2867:2873   */\n      dup5\n        /* \"#utility.yul\":2862:2865   */\n      dup3\n        /* \"#utility.yul\":2857:2860   */\n      dup6\n        /* \"#utility.yul\":2820:2874   */\n      tag_64\n      jump\t// in\n    tag_131:\n        /* \"#utility.yul\":2539:2880   */\n      pop\n        /* \"#utility.yul\":2455:2880   */\n      swap4\n      swap3\n      pop\n      pop\n      pop\n      jump\t// out\n        /* \"#utility.yul\":2900:3240   */\n    tag_66:\n        /* \"#utility.yul\":2956:2961   */\n      0x00\n        /* \"#utility.yul\":3005:3008   */\n      dup3\n        /* \"#utility.yul\":2998:3002   */\n      0x1f\n        /* \"#utility.yul\":2990:2996   */\n      dup4\n        /* \"#utility.yul\":2986:3003   */\n      add\n        /* \"#utility.yul\":2982:3009   */\n      slt\n        /* \"#utility.yul\":2972:3094   */\n      tag_133\n      jumpi\n        /* \"#utility.yul\":3013:3092   */\n      tag_134\n      tag_57\n      jump\t// in\n    tag_134:\n        /* \"#utility.yul\":2972:3094   */\n    tag_133:\n        /* \"#utility.yul\":3130:3136   */\n      dup2\n        /* \"#utility.yul\":3117:3137   */\n      calldataload\n        /* \"#utility.yul\":3155:3234   */\n      tag_135\n        /* \"#utility.yul\":3230:3233   */\n      dup5\n        /* \"#utility.yul\":3222:3228   */\n      dup3\n        /* \"#utility.yul\":3215:3219   */\n      0x20\n        /* \"#utility.yul\":3207:3213   */\n      dup7\n        /* \"#utility.yul\":3203:3220   */\n      add\n        /* \"#utility.yul\":3155:3234   */\n      tag_65\n      jump\t// in\n    tag_135:\n        /* \"#utility.yul\":3146:3234   */\n      swap2\n      pop\n        /* \"#utility.yul\":2962:3240   */\n      pop\n        /* \"#utility.yul\":2900:3240   */\n      swap3\n      swap2\n      pop\n      pop\n      jump\t// out\n        /* \"#utility.yul\":3246:3755   */\n    tag_14:\n        /* \"#utility.yul\":3315:3321   */\n      0x00\n        /* \"#utility.yul\":3364:3366   */\n      0x20\n        /* \"#utility.yul\":3352:3361   */\n      dup3\n        /* \"#utility.yul\":3343:3350   */\n      dup5\n        /* \"#utility.yul\":3339:3362   */\n      sub\n        /* \"#utility.yul\":3335:3367   */\n      slt\n        /* \"#utility.yul\":3332:3451   */\n      iszero\n      tag_137\n      jumpi\n        /* \"#utility.yul\":3370:3449   */\n      tag_138\n      tag_52\n      jump\t// in\n    tag_138:\n        /* \"#utility.yul\":3332:3451   */\n    tag_137:\n        /* \"#utility.yul\":3518:3519   */\n      0x00\n        /* \"#utility.yul\":3507:3516   */\n      dup3\n        /* \"#utility.yul\":3503:3520   */\n      add\n        /* \"#utility.yul\":3490:3521   */\n      calldataload\n        /* \"#utility.yul\":3548:3566   */\n      0xffffffffffffffff\n        /* \"#utility.yul\":3540:3546   */\n      dup2\n        /* \"#utility.yul\":3537:3567   */\n      gt\n        /* \"#utility.yul\":3534:3651   */\n      iszero\n      tag_139\n      jumpi\n        /* \"#utility.yul\":3570:3649   */\n      tag_140\n      tag_53\n      jump\t// in\n    tag_140:\n        /* \"#utility.yul\":3534:3651   */\n    tag_139:\n        /* \"#utility.yul\":3675:3738   */\n      tag_141\n        /* \"#utility.yul\":3730:3737   */\n      dup5\n        /* \"#utility.yul\":3721:3727   */\n      dup3\n        /* \"#utility.yul\":3710:3719   */\n      dup6\n        /* \"#utility.yul\":3706:3728   */\n      add\n        /* \"#utility.yul\":3675:3738   */\n      tag_66\n      jump\t// in\n    tag_141:\n        /* \"#utility.yul\":3665:3738   */\n      swap2\n      pop\n        /* \"#utility.yul\":3461:3748   */\n      pop\n        /* \"#utility.yul\":3246:3755   */\n      swap3\n      swap2\n      pop\n      pop\n      jump\t// out\n        /* \"#utility.yul\":3761:3879   */\n    tag_67:\n        /* \"#utility.yul\":3848:3872   */\n      tag_143\n        /* \"#utility.yul\":3866:3871   */\n      dup2\n        /* \"#utility.yul\":3848:3872   */\n      tag_54\n      jump\t// in\n    tag_143:\n        /* \"#utility.yul\":3843:3846   */\n      dup3\n        /* \"#utility.yul\":3836:3873   */\n      mstore\n        /* \"#utility.yul\":3761:3879   */\n      pop\n      pop\n      jump\t// out\n        /* \"#utility.yul\":3885:4107   */\n    tag_20:\n        /* \"#utility.yul\":3978:3982   */\n      0x00\n        /* \"#utility.yul\":4016:4018   */\n      0x20\n        /* \"#utility.yul\":4005:4014   */\n      dup3\n        /* \"#utility.yul\":4001:4019   */\n      add\n        /* \"#utility.yul\":3993:4019   */\n      swap1\n      pop\n        /* \"#utility.yul\":4029:4100   */\n      tag_145\n        /* \"#utility.yul\":4097:4098   */\n      0x00\n        /* \"#utility.yul\":4086:4095   */\n      dup4\n        /* \"#utility.yul\":4082:4099   */\n      add\n        /* \"#utility.yul\":4073:4079   */\n      dup5\n        /* \"#utility.yul\":4029:4100   */\n      tag_67\n      jump\t// in\n    tag_145:\n        /* \"#utility.yul\":3885:4107   */\n      swap3\n      swap2\n      pop\n      pop\n      jump\t// out\n        /* \"#utility.yul\":4113:4212   */\n    tag_68:\n        /* \"#utility.yul\":4165:4171   */\n      0x00\n        /* \"#utility.yul\":4199:4204   */\n      dup2\n        /* \"#utility.yul\":4193:4205   */\n      mload\n        /* \"#utility.yul\":4183:4205   */\n      swap1\n      pop\n        /* \"#utility.yul\":4113:4212   */\n      swap2\n      swap1\n      pop\n      jump\t// out\n        /* \"#utility.yul\":4218:4387   */\n    tag_69:\n        /* \"#utility.yul\":4302:4313   */\n      0x00\n        /* \"#utility.yul\":4336:4342   */\n      dup3\n        /* \"#utility.yul\":4331:4334   */\n      dup3\n        /* \"#utility.yul\":4324:4343   */\n      mstore\n        /* \"#utility.yul\":4376:4380   */\n      0x20\n        /* \"#utility.yul\":4371:4374   */\n      dup3\n        /* \"#utility.yul\":4367:4381   */\n      add\n        /* \"#utility.yul\":4352:4381   */\n      swap1\n      pop\n        /* \"#utility.yul\":4218:4387   */\n      swap3\n      swap2\n      pop\n      pop\n      jump\t// out\n        /* \"#utility.yul\":4393:4532   */\n    tag_70:\n        /* \"#utility.yul\":4482:4488   */\n      dup3\n        /* \"#utility.yul\":4477:4480   */\n      dup2\n        /* \"#utility.yul\":4472:4475   */\n      dup4\n        /* \"#utility.yul\":4466:4489   */\n      mcopy\n        /* \"#utility.yul\":4523:4524   */\n      0x00\n        /* \"#utility.yul\":4514:4520   */\n      dup4\n        /* \"#utility.yul\":4509:4512   */\n      dup4\n        /* \"#utility.yul\":4505:4521   */\n      add\n        /* \"#utility.yul\":4498:4525   */\n      mstore\n        /* \"#utility.yul\":4393:4532   */\n      pop\n      pop\n      pop\n      jump\t// out\n        /* \"#utility.yul\":4538:4915   */\n    tag_71:\n        /* \"#utility.yul\":4626:4629   */\n      0x00\n        /* \"#utility.yul\":4654:4693   */\n      tag_150\n        /* \"#utility.yul\":4687:4692   */\n      dup3\n        /* \"#utility.yul\":4654:4693   */\n      tag_68\n      jump\t// in\n    tag_150:\n        /* \"#utility.yul\":4709:4780   */\n      tag_151\n        /* \"#utility.yul\":4773:4779   */\n      dup2\n        /* \"#utility.yul\":4768:4771   */\n      dup6\n        /* \"#utility.yul\":4709:4780   */\n      tag_69\n      jump\t// in\n    tag_151:\n        /* \"#utility.yul\":4702:4780   */\n      swap4\n      pop\n        /* \"#utility.yul\":4789:4854   */\n      tag_152\n        /* \"#utility.yul\":4847:4853   */\n      dup2\n        /* \"#utility.yul\":4842:4845   */\n      dup6\n        /* \"#utility.yul\":4835:4839   */\n      0x20\n        /* \"#utility.yul\":4828:4833   */\n      dup7\n        /* \"#utility.yul\":4824:4840   */\n      add\n        /* \"#utility.yul\":4789:4854   */\n      tag_70\n      jump\t// in\n    tag_152:\n        /* \"#utility.yul\":4879:4908   */\n      tag_153\n        /* \"#utility.yul\":4901:4907   */\n      dup2\n        /* \"#utility.yul\":4879:4908   */\n      tag_59\n      jump\t// in\n    tag_153:\n        /* \"#utility.yul\":4874:4877   */\n      dup5\n        /* \"#utility.yul\":4870:4909   */\n      add\n        /* \"#utility.yul\":4863:4909   */\n      swap2\n      pop\n        /* \"#utility.yul\":4630:4915   */\n      pop\n        /* \"#utility.yul\":4538:4915   */\n      swap3\n      swap2\n      pop\n      pop\n      jump\t// out\n        /* \"#utility.yul\":4921:5047   */\n    tag_72:\n        /* \"#utility.yul\":4958:4965   */\n      0x00\n        /* \"#utility.yul\":4998:5040   */\n      0xffffffffffffffffffffffffffffffffffffffff\n        /* \"#utility.yul\":4991:4996   */\n      dup3\n        /* \"#utility.yul\":4987:5041   */\n      and\n        /* \"#utility.yul\":4976:5041   */\n      swap1\n      pop\n        /* \"#utility.yul\":4921:5047   */\n      swap2\n      swap1\n      pop\n      jump\t// out\n        /* \"#utility.yul\":5053:5157   */\n    tag_73:\n        /* \"#utility.yul\":5098:5105   */\n      0x00\n        /* \"#utility.yul\":5127:5151   */\n      tag_156\n        /* \"#utility.yul\":5145:5150   */\n      dup3\n        /* \"#utility.yul\":5127:5151   */\n      tag_72\n      jump\t// in\n    tag_156:\n        /* \"#utility.yul\":5116:5151   */\n      swap1\n      pop\n        /* \"#utility.yul\":5053:5157   */\n      swap2\n      swap1\n      pop\n      jump\t// out\n        /* \"#utility.yul\":5163:5305   */\n    tag_74:\n        /* \"#utility.yul\":5266:5298   */\n      tag_158\n        /* \"#utility.yul\":5292:5297   */\n      dup2\n        /* \"#utility.yul\":5266:5298   */\n      tag_73\n      jump\t// in\n    tag_158:\n        /* \"#utility.yul\":5261:5264   */\n      dup3\n        /* \"#utility.yul\":5254:5299   */\n      mstore\n        /* \"#utility.yul\":5163:5305   */\n      pop\n      pop\n      jump\t// out\n        /* \"#utility.yul\":5311:5987   */\n    tag_29:\n        /* \"#utility.yul\":5524:5528   */\n      0x00\n        /* \"#utility.yul\":5562:5565   */\n      0x80\n        /* \"#utility.yul\":5551:5560   */\n      dup3\n        /* \"#utility.yul\":5547:5566   */\n      add\n        /* \"#utility.yul\":5539:5566   */\n      swap1\n      pop\n        /* \"#utility.yul\":5612:5621   */\n      dup2\n        /* \"#utility.yul\":5606:5610   */\n      dup2\n        /* \"#utility.yul\":5602:5622   */\n      sub\n        /* \"#utility.yul\":5598:5599   */\n      0x00\n        /* \"#utility.yul\":5587:5596   */\n      dup4\n        /* \"#utility.yul\":5583:5600   */\n      add\n        /* \"#utility.yul\":5576:5623   */\n      mstore\n        /* \"#utility.yul\":5640:5718   */\n      tag_160\n        /* \"#utility.yul\":5713:5717   */\n      dup2\n        /* \"#utility.yul\":5704:5710   */\n      dup8\n        /* \"#utility.yul\":5640:5718   */\n      tag_71\n      jump\t// in\n    tag_160:\n        /* \"#utility.yul\":5632:5718   */\n      swap1\n      pop\n        /* \"#utility.yul\":5728:5816   */\n      tag_161\n        /* \"#utility.yul\":5812:5814   */\n      0x20\n        /* \"#utility.yul\":5801:5810   */\n      dup4\n        /* \"#utility.yul\":5797:5815   */\n      add\n        /* \"#utility.yul\":5788:5794   */\n      dup7\n        /* \"#utility.yul\":5728:5816   */\n      tag_74\n      jump\t// in\n    tag_161:\n        /* \"#utility.yul\":5826:5898   */\n      tag_162\n        /* \"#utility.yul\":5894:5896   */\n      0x40\n        /* \"#utility.yul\":5883:5892   */\n      dup4\n        /* \"#utility.yul\":5879:5897   */\n      add\n        /* \"#utility.yul\":5870:5876   */\n      dup6\n        /* \"#utility.yul\":5826:5898   */\n      tag_67\n      jump\t// in\n    tag_162:\n        /* \"#utility.yul\":5908:5980   */\n      tag_163\n        /* \"#utility.yul\":5976:5978   */\n      0x60\n        /* \"#utility.yul\":5965:5974   */\n      dup4\n        /* \"#utility.yul\":5961:5979   */\n      add\n        /* \"#utility.yul\":5952:5958   */\n      dup5\n        /* \"#utility.yul\":5908:5980   */\n      tag_67\n      jump\t// in\n    tag_163:\n        /* \"#utility.yul\":5311:5987   */\n      swap6\n      swap5\n      pop\n      pop\n      pop\n      pop\n      pop\n      jump\t// out\n        /* \"#utility.yul\":5993:6160   */\n    tag_75:\n        /* \"#utility.yul\":6133:6152   */\n      0x596f7520617265206e6f74206f776e6572000000000000000000000000000000\n        /* \"#utility.yul\":6129:6130   */\n      0x00\n        /* \"#utility.yul\":6121:6127   */\n      dup3\n        /* \"#utility.yul\":6117:6131   */\n      add\n        /* \"#utility.yul\":6110:6153   */\n      mstore\n        /* \"#utility.yul\":5993:6160   */\n      pop\n      jump\t// out\n        /* \"#utility.yul\":6166:6532   */\n    tag_76:\n        /* \"#utility.yul\":6308:6311   */\n      0x00\n        /* \"#utility.yul\":6329:6396   */\n      tag_166\n        /* \"#utility.yul\":6393:6395   */\n      0x11\n        /* \"#utility.yul\":6388:6391   */\n      dup4\n        /* \"#utility.yul\":6329:6396   */\n      tag_69\n      jump\t// in\n    tag_166:\n        /* \"#utility.yul\":6322:6396   */\n      swap2\n      pop\n        /* \"#utility.yul\":6405:6498   */\n      tag_167\n        /* \"#utility.yul\":6494:6497   */\n      dup3\n        /* \"#utility.yul\":6405:6498   */\n      tag_75\n      jump\t// in\n    tag_167:\n        /* \"#utility.yul\":6523:6525   */\n      0x20\n        /* \"#utility.yul\":6518:6521   */\n      dup3\n        /* \"#utility.yul\":6514:6526   */\n      add\n        /* \"#utility.yul\":6507:6526   */\n      swap1\n      pop\n        /* \"#utility.yul\":6166:6532   */\n      swap2\n      swap1\n      pop\n      jump\t// out\n        /* \"#utility.yul\":6538:6957   */\n    tag_33:\n        /* \"#utility.yul\":6704:6708   */\n      0x00\n        /* \"#utility.yul\":6742:6744   */\n      0x20\n        /* \"#utility.yul\":6731:6740   */\n      dup3\n        /* \"#utility.yul\":6727:6745   */\n      add\n        /* \"#utility.yul\":6719:6745   */\n      swap1\n      pop\n        /* \"#utility.yul\":6791:6800   */\n      dup2\n        /* \"#utility.yul\":6785:6789   */\n      dup2\n        /* \"#utility.yul\":6781:6801   */\n      sub\n        /* \"#utility.yul\":6777:6778   */\n      0x00\n        /* \"#utility.yul\":6766:6775   */\n      dup4\n        /* \"#utility.yul\":6762:6779   */\n      add\n        /* \"#utility.yul\":6755:6802   */\n      mstore\n        /* \"#utility.yul\":6819:6950   */\n      tag_169\n        /* \"#utility.yul\":6945:6949   */\n      dup2\n        /* \"#utility.yul\":6819:6950   */\n      tag_76\n      jump\t// in\n    tag_169:\n        /* \"#utility.yul\":6811:6950   */\n      swap1\n      pop\n        /* \"#utility.yul\":6538:6957   */\n      swap2\n      swap1\n      pop\n      jump\t// out\n        /* \"#utility.yul\":6963:7143   */\n    tag_77:\n        /* \"#utility.yul\":7011:7088   */\n      0x4e487b7100000000000000000000000000000000000000000000000000000000\n        /* \"#utility.yul\":7008:7009   */\n      0x00\n        /* \"#utility.yul\":7001:7089   */\n      mstore\n        /* \"#utility.yul\":7108:7112   */\n      0x22\n        /* \"#utility.yul\":7105:7106   */\n      0x04\n        /* \"#utility.yul\":7098:7113   */\n      mstore\n        /* \"#utility.yul\":7132:7136   */\n      0x24\n        /* \"#utility.yul\":7129:7130   */\n      0x00\n        /* \"#utility.yul\":7122:7137   */\n      revert\n        /* \"#utility.yul\":7149:7469   */\n    tag_46:\n        /* \"#utility.yul\":7193:7199   */\n      0x00\n        /* \"#utility.yul\":7230:7231   */\n      0x02\n        /* \"#utility.yul\":7224:7228   */\n      dup3\n        /* \"#utility.yul\":7220:7232   */\n      div\n        /* \"#utility.yul\":7210:7232   */\n      swap1\n      pop\n        /* \"#utility.yul\":7277:7278   */\n      0x01\n        /* \"#utility.yul\":7271:7275   */\n      dup3\n        /* \"#utility.yul\":7267:7279   */\n      and\n        /* \"#utility.yul\":7298:7316   */\n      dup1\n        /* \"#utility.yul\":7288:7369   */\n      tag_172\n      jumpi\n        /* \"#utility.yul\":7354:7358   */\n      0x7f\n        /* \"#utility.yul\":7346:7352   */\n      dup3\n        /* \"#utility.yul\":7342:7359   */\n      and\n        /* \"#utility.yul\":7332:7359   */\n      swap2\n      pop\n        /* \"#utility.yul\":7288:7369   */\n    tag_172:\n        /* \"#utility.yul\":7416:7418   */\n      0x20\n        /* \"#utility.yul\":7408:7414   */\n      dup3\n        /* \"#utility.yul\":7405:7419   */\n      lt\n        /* \"#utility.yul\":7385:7403   */\n      dup2\n        /* \"#utility.yul\":7382:7420   */\n      sub\n        /* \"#utility.yul\":7379:7463   */\n      tag_173\n      jumpi\n        /* \"#utility.yul\":7435:7453   */\n      tag_174\n      tag_77\n      jump\t// in\n    tag_174:\n        /* \"#utility.yul\":7379:7463   */\n    tag_173:\n        /* \"#utility.yul\":7200:7469   */\n      pop\n        /* \"#utility.yul\":7149:7469   */\n      swap2\n      swap1\n      pop\n      jump\t// out\n        /* \"#utility.yul\":7475:7616   */\n    tag_78:\n        /* \"#utility.yul\":7524:7528   */\n      0x00\n        /* \"#utility.yul\":7547:7550   */\n      dup2\n        /* \"#utility.yul\":7539:7550   */\n      swap1\n      pop\n        /* \"#utility.yul\":7570:7573   */\n      dup2\n        /* \"#utility.yul\":7567:7568   */\n      0x00\n        /* \"#utility.yul\":7560:7574   */\n      mstore\n        /* \"#utility.yul\":7604:7608   */\n      0x20\n        /* \"#utility.yul\":7601:7602   */\n      0x00\n        /* \"#utility.yul\":7591:7609   */\n      keccak256\n        /* \"#utility.yul\":7583:7609   */\n      swap1\n      pop\n        /* \"#utility.yul\":7475:7616   */\n      swap2\n      swap1\n      pop\n      jump\t// out\n        /* \"#utility.yul\":7622:7715   */\n    tag_79:\n        /* \"#utility.yul\":7659:7665   */\n      0x00\n        /* \"#utility.yul\":7706:7708   */\n      0x20\n        /* \"#utility.yul\":7701:7703   */\n      0x1f\n        /* \"#utility.yul\":7694:7699   */\n      dup4\n        /* \"#utility.yul\":7690:7704   */\n      add\n        /* \"#utility.yul\":7686:7709   */\n      div\n        /* \"#utility.yul\":7676:7709   */\n      swap1\n      pop\n        /* \"#utility.yul\":7622:7715   */\n      swap2\n      swap1\n      pop\n      jump\t// out\n        /* \"#utility.yul\":7721:7828   */\n    tag_80:\n        /* \"#utility.yul\":7765:7773   */\n      0x00\n        /* \"#utility.yul\":7815:7820   */\n      dup3\n        /* \"#utility.yul\":7809:7813   */\n      dup3\n        /* \"#utility.yul\":7805:7821   */\n      shl\n        /* \"#utility.yul\":7784:7821   */\n      swap1\n      pop\n        /* \"#utility.yul\":7721:7828   */\n      swap3\n      swap2\n      pop\n      pop\n      jump\t// out\n        /* \"#utility.yul\":7834:8227   */\n    tag_81:\n        /* \"#utility.yul\":7903:7909   */\n      0x00\n        /* \"#utility.yul\":7953:7954   */\n      0x08\n        /* \"#utility.yul\":7941:7951   */\n      dup4\n        /* \"#utility.yul\":7937:7955   */\n      mul\n        /* \"#utility.yul\":7976:8073   */\n      tag_179\n        /* \"#utility.yul\":8006:8072   */\n      0xffffffffffffffffffffffffffffffffffffffffffffffffffffffffffffffff\n        /* \"#utility.yul\":7995:8004   */\n      dup3\n        /* \"#utility.yul\":7976:8073   */\n      tag_80\n      jump\t// in\n    tag_179:\n        /* \"#utility.yul\":8094:8133   */\n      tag_180\n        /* \"#utility.yul\":8124:8132   */\n      dup7\n        /* \"#utility.yul\":8113:8122   */\n      dup4\n        /* \"#utility.yul\":8094:8133   */\n      tag_80\n      jump\t// in\n    tag_180:\n        /* \"#utility.yul\":8082:8133   */\n      swap6\n      pop\n        /* \"#utility.yul\":8166:8170   */\n      dup1\n        /* \"#utility.yul\":8162:8171   */\n      not\n        /* \"#utility.yul\":8155:8160   */\n      dup5\n        /* \"#utility.yul\":8151:8172   */\n      and\n        /* \"#utility.yul\":8142:8172   */\n      swap4\n      pop\n        /* \"#utility.yul\":8215:8219   */\n      dup1\n        /* \"#utility.yul\":8205:8213   */\n      dup7\n        /* \"#utility.yul\":8201:8220   */\n      and\n        /* \"#utility.yul\":8194:8199   */\n      dup5\n        /* \"#utility.yul\":8191:8221   */\n      or\n        /* \"#utility.yul\":8181:8221   */\n      swap3\n      pop\n        /* \"#utility.yul\":7910:8227   */\n      pop\n      pop\n        /* \"#utility.yul\":7834:8227   */\n      swap4\n      swap3\n      pop\n      pop\n      pop\n      jump\t// out\n        /* \"#utility.yul\":8233:8293   */\n    tag_82:\n        /* \"#utility.yul\":8261:8264   */\n      0x00\n        /* \"#utility.yul\":8282:8287   */\n      dup2\n        /* \"#utility.yul\":8275:8287   */\n      swap1\n      pop\n        /* \"#utility.yul\":8233:8293   */\n      swap2\n      swap1\n      pop\n      jump\t// out\n        /* \"#utility.yul\":8299:8441   */\n    tag_83:\n        /* \"#utility.yul\":8349:8358   */\n      0x00\n        /* \"#utility.yul\":8382:8435   */\n      tag_183\n        /* \"#utility.yul\":8400:8434   */\n      tag_184\n        /* \"#utility.yul\":8409:8433   */\n      tag_185\n        /* \"#utility.yul\":8427:8432   */\n      dup5\n        /* \"#utility.yul\":8409:8433   */\n      tag_54\n      jump\t// in\n    tag_185:\n        /* \"#utility.yul\":8400:8434   */\n      tag_82\n      jump\t// in\n    tag_184:\n        /* \"#utility.yul\":8382:8435   */\n      tag_54\n      jump\t// in\n    tag_183:\n        /* \"#utility.yul\":8369:8435   */\n      swap1\n      pop\n        /* \"#utility.yul\":8299:8441   */\n      swap2\n      swap1\n      pop\n      jump\t// out\n        /* \"#utility.yul\":8447:8522   */\n    tag_84:\n        /* \"#utility.yul\":8490:8493   */\n      0x00\n        /* \"#utility.yul\":8511:8516   */\n      dup2\n        /* \"#utility.yul\":8504:8516   */\n      swap1\n      pop\n        /* \"#utility.yul\":8447:8522   */\n      swap2\n      swap1\n      pop\n      jump\t// out\n        /* \"#utility.yul\":8528:8797   */\n    tag_85:\n        /* \"#utility.yul\":8638:8677   */\n      tag_188\n        /* \"#utility.yul\":8669:8676   */\n      dup4\n        /* \"#utility.yul\":8638:8677   */\n      tag_83\n      jump\t// in\n    tag_188:\n        /* \"#utility.yul\":8699:8790   */\n      tag_189\n        /* \"#utility.yul\":8748:8789   */\n      tag_190\n        /* \"#utility.yul\":8772:8788   */\n      dup3\n        /* \"#utility.yul\":8748:8789   */\n      tag_84\n      jump\t// in\n    tag_190:\n        /* \"#utility.yul\":8740:8746   */\n      dup5\n        /* \"#utility.yul\":8733:8737   */\n      dup5\n        /* \"#utility.yul\":8727:8738   */\n      sload\n        /* \"#utility.yul\":8699:8790   */\n      tag_81\n      jump\t// in\n    tag_189:\n        /* \"#utility.yul\":8693:8697   */\n      dup3\n        /* \"#utility.yul\":8686:8791   */\n      sstore\n        /* \"#utility.yul\":8604:8797   */\n      pop\n        /* \"#utility.yul\":8528:8797   */\n      pop\n      pop\n      pop\n      jump\t// out\n        /* \"#utility.yul\":8803:8876   */\n    tag_86:\n        /* \"#utility.yul\":8848:8851   */\n      0x00\n        /* \"#utility.yul\":8869:8870   */\n      0x00\n        /* \"#utility.yul\":8862:8870   */\n      swap1\n      pop\n        /* \"#utility.yul\":8803:8876   */\n      swap1\n      jump\t// out\n        /* \"#utility.yul\":8882:9071   */\n    tag_87:\n        /* \"#utility.yul\":8959:8991   */\n      tag_193\n      tag_86\n      jump\t// in\n    tag_193:\n        /* \"#utility.yul\":9000:9065   */\n      tag_194\n        /* \"#utility.yul\":9058:9064   */\n      dup2\n        /* \"#utility.yul\":9050:9056   */\n      dup5\n        /* \"#utility.yul\":9044:9048   */\n      dup5\n        /* \"#utility.yul\":9000:9065   */\n      tag_85\n      jump\t// in\n    tag_194:\n        /* \"#utility.yul\":8935:9071   */\n      pop\n        /* \"#utility.yul\":8882:9071   */\n      pop\n      pop\n      jump\t// out\n        /* \"#utility.yul\":9077:9263   */\n    tag_88:\n        /* \"#utility.yul\":9137:9257   */\n    tag_196:\n        /* \"#utility.yul\":9154:9157   */\n      dup2\n        /* \"#utility.yul\":9147:9152   */\n      dup2\n        /* \"#utility.yul\":9144:9158   */\n      lt\n        /* \"#utility.yul\":9137:9257   */\n      iszero\n      tag_198\n      jumpi\n        /* \"#utility.yul\":9208:9247   */\n      tag_199\n        /* \"#utility.yul\":9245:9246   */\n      0x00\n        /* \"#utility.yul\":9238:9243   */\n      dup3\n        /* \"#utility.yul\":9208:9247   */\n      tag_87\n      jump\t// in\n    tag_199:\n        /* \"#utility.yul\":9181:9182   */\n      0x01\n        /* \"#utility.yul\":9174:9179   */\n      dup2\n        /* \"#utility.yul\":9170:9183   */\n      add\n        /* \"#utility.yul\":9161:9183   */\n      swap1\n      pop\n        /* \"#utility.yul\":9137:9257   */\n      jump(tag_196)\n    tag_198:\n        /* \"#utility.yul\":9077:9263   */\n      pop\n      pop\n      jump\t// out\n        /* \"#utility.yul\":9269:9812   */\n    tag_89:\n        /* \"#utility.yul\":9370:9372   */\n      0x1f\n        /* \"#utility.yul\":9365:9368   */\n      dup3\n        /* \"#utility.yul\":9362:9373   */\n      gt\n        /* \"#utility.yul\":9359:9805   */\n      iszero\n      tag_201\n      jumpi\n        /* \"#utility.yul\":9404:9442   */\n      tag_202\n        /* \"#utility.yul\":9436:9441   */\n      dup2\n        /* \"#utility.yul\":9404:9442   */\n      tag_78\n      jump\t// in\n    tag_202:\n        /* \"#utility.yul\":9488:9517   */\n      tag_203\n        /* \"#utility.yul\":9506:9516   */\n      dup5\n        /* \"#utility.yul\":9488:9517   */\n      tag_79\n      jump\t// in\n    tag_203:\n        /* \"#utility.yul\":9478:9486   */\n      dup2\n        /* \"#utility.yul\":9474:9518   */\n      add\n        /* \"#utility.yul\":9671:9673   */\n      0x20\n        /* \"#utility.yul\":9659:9669   */\n      dup6\n        /* \"#utility.yul\":9656:9674   */\n      lt\n        /* \"#utility.yul\":9653:9702   */\n      iszero\n      tag_204\n      jumpi\n        /* \"#utility.yul\":9692:9700   */\n      dup2\n        /* \"#utility.yul\":9677:9700   */\n      swap1\n      pop\n        /* \"#utility.yul\":9653:9702   */\n    tag_204:\n        /* \"#utility.yul\":9715:9795   */\n      tag_205\n        /* \"#utility.yul\":9771:9793   */\n      tag_206\n        /* \"#utility.yul\":9789:9792   */\n      dup6\n        /* \"#utility.yul\":9771:9793   */\n      tag_79\n      jump\t// in\n    tag_206:\n        /* \"#utility.yul\":9761:9769   */\n      dup4\n        /* \"#utility.yul\":9757:9794   */\n      add\n        /* \"#utility.yul\":9744:9755   */\n      dup3\n        /* \"#utility.yul\":9715:9795   */\n      tag_88\n      jump\t// in\n    tag_205:\n        /* \"#utility.yul\":9374:9805   */\n      pop\n      pop\n        /* \"#utility.yul\":9359:9805   */\n    tag_201:\n        /* \"#utility.yul\":9269:9812   */\n      pop\n      pop\n      pop\n      jump\t// out\n        /* \"#utility.yul\":9818:9935   */\n    tag_90:\n        /* \"#utility.yul\":9872:9880   */\n      0x00\n        /* \"#utility.yul\":9922:9927   */\n      dup3\n        /* \"#utility.yul\":9916:9920   */\n      dup3\n        /* \"#utility.yul\":9912:9928   */\n      shr\n        /* \"#utility.yul\":9891:9928   */\n      swap1\n      pop\n        /* \"#utility.yul\":9818:9935   */\n      swap3\n      swap2\n      pop\n      pop\n      jump\t// out\n        /* \"#utility.yul\":9941:10110   */\n    tag_91:\n        /* \"#utility.yul\":9985:9991   */\n      0x00\n        /* \"#utility.yul\":10018:10069   */\n      tag_209\n        /* \"#utility.yul\":10066:10067   */\n      0x00\n        /* \"#utility.yul\":10062:10068   */\n      not\n        /* \"#utility.yul\":10054:10059   */\n      dup5\n        /* \"#utility.yul\":10051:10052   */\n      0x08\n        /* \"#utility.yul\":10047:10060   */\n      mul\n        /* \"#utility.yul\":10018:10069   */\n      tag_90\n      jump\t// in\n    tag_209:\n        /* \"#utility.yul\":10014:10070   */\n      not\n        /* \"#utility.yul\":10099:10103   */\n      dup1\n        /* \"#utility.yul\":10093:10097   */\n      dup4\n        /* \"#utility.yul\":10089:10104   */\n      and\n        /* \"#utility.yul\":10079:10104   */\n      swap2\n      pop\n        /* \"#utility.yul\":9992:10110   */\n      pop\n        /* \"#utility.yul\":9941:10110   */\n      swap3\n      swap2\n      pop\n      pop\n      jump\t// out\n        /* \"#utility.yul\":10115:10410   */\n    tag_92:\n        /* \"#utility.yul\":10191:10195   */\n      0x00\n        /* \"#utility.yul\":10337:10366   */\n      tag_211\n        /* \"#utility.yul\":10362:10365   */\n      dup4\n        /* \"#utility.yul\":10356:10360   */\n      dup4\n        /* \"#utility.yul\":10337:10366   */\n      tag_91\n      jump\t// in\n    tag_211:\n        /* \"#utility.yul\":10329:10366   */\n      swap2\n      pop\n        /* \"#utility.yul\":10399:10402   */\n      dup3\n        /* \"#utility.yul\":10396:10397   */\n      0x02\n        /* \"#utility.yul\":10392:10403   */\n      mul\n        /* \"#utility.yul\":10386:10390   */\n      dup3\n        /* \"#utility.yul\":10383:10404   */\n      or\n        /* \"#utility.yul\":10375:10404   */\n      swap1\n      pop\n        /* \"#utility.yul\":10115:10410   */\n      swap3\n      swap2\n      pop\n      pop\n      jump\t// out\n        /* \"#utility.yul\":10415:11810   */\n    tag_38:\n        /* \"#utility.yul\":10532:10569   */\n      tag_213\n        /* \"#utility.yul\":10565:10568   */\n      dup3\n        /* \"#utility.yul\":10532:10569   */\n      tag_68\n      jump\t// in\n    tag_213:\n        /* \"#utility.yul\":10634:10652   */\n      0xffffffffffffffff\n        /* \"#utility.yul\":10626:10632   */\n      dup2\n        /* \"#utility.yul\":10623:10653   */\n      gt\n        /* \"#utility.yul\":10620:10676   */\n      iszero\n      tag_214\n      jumpi\n        /* \"#utility.yul\":10656:10674   */\n      tag_215\n      tag_60\n      jump\t// in\n    tag_215:\n        /* \"#utility.yul\":10620:10676   */\n    tag_214:\n        /* \"#utility.yul\":10700:10738   */\n      tag_216\n        /* \"#utility.yul\":10732:10736   */\n      dup3\n        /* \"#utility.yul\":10726:10737   */\n      sload\n        /* \"#utility.yul\":10700:10738   */\n      tag_46\n      jump\t// in\n    tag_216:\n        /* \"#utility.yul\":10785:10852   */\n      tag_217\n        /* \"#utility.yul\":10845:10851   */\n      dup3\n        /* \"#utility.yul\":10837:10843   */\n      dup3\n        /* \"#utility.yul\":10831:10835   */\n      dup6\n        /* \"#utility.yul\":10785:10852   */\n      tag_89\n      jump\t// in\n    tag_217:\n        /* \"#utility.yul\":10879:10880   */\n      0x00\n        /* \"#utility.yul\":10903:10907   */\n      0x20\n        /* \"#utility.yul\":10890:10907   */\n      swap1\n      pop\n        /* \"#utility.yul\":10935:10937   */\n      0x1f\n        /* \"#utility.yul\":10927:10933   */\n      dup4\n        /* \"#utility.yul\":10924:10938   */\n      gt\n        /* \"#utility.yul\":10952:10953   */\n      0x01\n        /* \"#utility.yul\":10947:11565   */\n      dup2\n      eq\n      tag_219\n      jumpi\n        /* \"#utility.yul\":11609:11610   */\n      0x00\n        /* \"#utility.yul\":11626:11632   */\n      dup5\n        /* \"#utility.yul\":11623:11700   */\n      iszero\n      tag_220\n      jumpi\n        /* \"#utility.yul\":11675:11684   */\n      dup3\n        /* \"#utility.yul\":11670:11673   */\n      dup8\n        /* \"#utility.yul\":11666:11685   */\n      add\n        /* \"#utility.yul\":11660:11686   */\n      mload\n        /* \"#utility.yul\":11651:11686   */\n      swap1\n      pop\n        /* \"#utility.yul\":11623:11700   */\n    tag_220:\n        /* \"#utility.yul\":11726:11793   */\n      tag_221\n        /* \"#utility.yul\":11786:11792   */\n      dup6\n        /* \"#utility.yul\":11779:11784   */\n      dup3\n        /* \"#utility.yul\":11726:11793   */\n      tag_92\n      jump\t// in\n    tag_221:\n        /* \"#utility.yul\":11720:11724   */\n      dup7\n        /* \"#utility.yul\":11713:11794   */\n      sstore\n        /* \"#utility.yul\":11582:11804   */\n      pop\n        /* \"#utility.yul\":10917:11804   */\n      jump(tag_218)\n        /* \"#utility.yul\":10947:11565   */\n    tag_219:\n        /* \"#utility.yul\":10999:11003   */\n      0x1f\n        /* \"#utility.yul\":10995:11004   */\n      not\n        /* \"#utility.yul\":10987:10993   */\n      dup5\n        /* \"#utility.yul\":10983:11005   */\n      and\n        /* \"#utility.yul\":11033:11070   */\n      tag_222\n        /* \"#utility.yul\":11065:11069   */\n      dup7\n        /* \"#utility.yul\":11033:11070   */\n      tag_78\n      jump\t// in\n    tag_222:\n        /* \"#utility.yul\":11092:11093   */\n      0x00\n        /* \"#utility.yul\":11106:11314   */\n    tag_223:\n        /* \"#utility.yul\":11120:11127   */\n      dup3\n        /* \"#utility.yul\":11117:11118   */\n      dup2\n        /* \"#utility.yul\":11114:11128   */\n      lt\n        /* \"#utility.yul\":11106:11314   */\n      iszero\n      tag_225\n      jumpi\n        /* \"#utility.yul\":11199:11208   */\n      dup5\n        /* \"#utility.yul\":11194:11197   */\n      dup10\n        /* \"#utility.yul\":11190:11209   */\n      add\n        /* \"#utility.yul\":11184:11210   */\n      mload\n        /* \"#utility.yul\":11176:11182   */\n      dup3\n        /* \"#utility.yul\":11169:11211   */\n      sstore\n        /* \"#utility.yul\":11250:11251   */\n      0x01\n        /* \"#utility.yul\":11242:11248   */\n      dup3\n        /* \"#utility.yul\":11238:11252   */\n      add\n        /* \"#utility.yul\":11228:11252   */\n      swap2\n      pop\n        /* \"#utility.yul\":11297:11299   */\n      0x20\n        /* \"#utility.yul\":11286:11295   */\n      dup6\n        /* \"#utility.yul\":11282:11300   */\n      add\n        /* \"#utility.yul\":11269:11300   */\n      swap5\n      pop\n        /* \"#utility.yul\":11143:11147   */\n      0x20\n        /* \"#utility.yul\":11140:11141   */\n      dup2\n        /* \"#utility.yul\":11136:11148   */\n      add\n        /* \"#utility.yul\":11131:11148   */\n      swap1\n      pop\n        /* \"#utility.yul\":11106:11314   */\n      jump(tag_223)\n    tag_225:\n        /* \"#utility.yul\":11342:11348   */\n      dup7\n        /* \"#utility.yul\":11333:11340   */\n      dup4\n        /* \"#utility.yul\":11330:11349   */\n      lt\n        /* \"#utility.yul\":11327:11506   */\n      iszero\n      tag_226\n      jumpi\n        /* \"#utility.yul\":11400:11409   */\n      dup5\n        /* \"#utility.yul\":11395:11398   */\n      dup10\n        /* \"#utility.yul\":11391:11410   */\n      add\n        /* \"#utility.yul\":11385:11411   */\n      mload\n        /* \"#utility.yul\":11443:11491   */\n      tag_227\n        /* \"#utility.yul\":11485:11489   */\n      0x1f\n        /* \"#utility.yul\":11477:11483   */\n      dup10\n        /* \"#utility.yul\":11473:11490   */\n      and\n        /* \"#utility.yul\":11462:11471   */\n      dup3\n        /* \"#utility.yul\":11443:11491   */\n      tag_91\n      jump\t// in\n    tag_227:\n        /* \"#utility.yul\":11435:11441   */\n      dup4\n        /* \"#utility.yul\":11428:11492   */\n      sstore\n        /* \"#utility.yul\":11350:11506   */\n      pop\n        /* \"#utility.yul\":11327:11506   */\n    tag_226:\n        /* \"#utility.yul\":11552:11553   */\n      0x01\n        /* \"#utility.yul\":11548:11549   */\n      0x02\n        /* \"#utility.yul\":11540:11546   */\n      dup9\n        /* \"#utility.yul\":11536:11550   */\n      mul\n        /* \"#utility.yul\":11532:11554   */\n      add\n        /* \"#utility.yul\":11526:11530   */\n      dup9\n        /* \"#utility.yul\":11519:11555   */\n      sstore\n        /* \"#utility.yul\":10954:11565   */\n      pop\n      pop\n      pop\n        /* \"#utility.yul\":10917:11804   */\n    tag_218:\n      pop\n        /* \"#utility.yul\":10507:11810   */\n      pop\n      pop\n      pop\n        /* \"#utility.yul\":10415:11810   */\n      pop\n      pop\n      jump\t// out\n        /* \"#utility.yul\":11816:11996   */\n    tag_93:\n        /* \"#utility.yul\":11864:11941   */\n      0x4e487b7100000000000000000000000000000000000000000000000000000000\n        /* \"#utility.yul\":11861:11862   */\n      0x00\n        /* \"#utility.yul\":11854:11942   */\n      mstore\n        /* \"#utility.yul\":11961:11965   */\n      0x11\n        /* \"#utility.yul\":11958:11959   */\n      0x04\n        /* \"#utility.yul\":11951:11966   */\n      mstore\n        /* \"#utility.yul\":11985:11989   */\n      0x24\n        /* \"#utility.yul\":11982:11983   */\n      0x00\n        /* \"#utility.yul\":11975:11990   */\n      revert\n        /* \"#utility.yul\":12002:12235   */\n    tag_40:\n        /* \"#utility.yul\":12041:12044   */\n      0x00\n        /* \"#utility.yul\":12064:12088   */\n      tag_230\n        /* \"#utility.yul\":12082:12087   */\n      dup3\n        /* \"#utility.yul\":12064:12088   */\n      tag_54\n      jump\t// in\n    tag_230:\n        /* \"#utility.yul\":12055:12088   */\n      swap2\n      pop\n        /* \"#utility.yul\":12110:12176   */\n      0xffffffffffffffffffffffffffffffffffffffffffffffffffffffffffffffff\n        /* \"#utility.yul\":12103:12108   */\n      dup3\n        /* \"#utility.yul\":12100:12177   */\n      sub\n        /* \"#utility.yul\":12097:12200   */\n      tag_231\n      jumpi\n        /* \"#utility.yul\":12180:12198   */\n      tag_232\n      tag_93\n      jump\t// in\n    tag_232:\n        /* \"#utility.yul\":12097:12200   */\n    tag_231:\n        /* \"#utility.yul\":12227:12228   */\n      0x01\n        /* \"#utility.yul\":12220:12225   */\n      dup3\n        /* \"#utility.yul\":12216:12229   */\n      add\n        /* \"#utility.yul\":12209:12229   */\n      swap1\n      pop\n        /* \"#utility.yul\":12002:12235   */\n      swap2\n      swap1\n      pop\n      jump\t// out\n        /* \"#utility.yul\":12241:12415   */\n    tag_94:\n        /* \"#utility.yul\":12381:12407   */\n      0x416d6f756e74206c657373207468616e206d696e696d756d0000000000000000\n        /* \"#utility.yul\":12377:12378   */\n      0x00\n        /* \"#utility.yul\":12369:12375   */\n      dup3\n        /* \"#utility.yul\":12365:12379   */\n      add\n        /* \"#utility.yul\":12358:12408   */\n      mstore\n        /* \"#utility.yul\":12241:12415   */\n      pop\n      jump\t// out\n        /* \"#utility.yul\":12421:12787   */\n    tag_95:\n        /* \"#utility.yul\":12563:12566   */\n      0x00\n        /* \"#utility.yul\":12584:12651   */\n      tag_235\n        /* \"#utility.yul\":12648:12650   */\n      0x18\n        /* \"#utility.yul\":12643:12646   */\n      dup4\n        /* \"#utility.yul\":12584:12651   */\n      tag_69\n      jump\t// in\n    tag_235:\n        /* \"#utility.yul\":12577:12651   */\n      swap2\n      pop\n        /* \"#utility.yul\":12660:12753   */\n      tag_236\n        /* \"#utility.yul\":12749:12752   */\n      dup3\n        /* \"#utility.yul\":12660:12753   */\n      tag_94\n      jump\t// in\n    tag_236:\n        /* \"#utility.yul\":12778:12780   */\n      0x20\n        /* \"#utility.yul\":12773:12776   */\n      dup3\n        /* \"#utility.yul\":12769:12781   */\n      add\n        /* \"#utility.yul\":12762:12781   */\n      swap1\n      pop\n        /* \"#utility.yul\":12421:12787   */\n      swap2\n      swap1\n      pop\n      jump\t// out\n        /* \"#utility.yul\":12793:13212   */\n    tag_44:\n        /* \"#utility.yul\":12959:12963   */\n      0x00\n        /* \"#utility.yul\":12997:12999   */\n      0x20\n        /* \"#utility.yul\":12986:12995   */\n      dup3\n        /* \"#utility.yul\":12982:13000   */\n      add\n        /* \"#utility.yul\":12974:13000   */\n      swap1\n      pop\n        /* \"#utility.yul\":13046:13055   */\n      dup2\n        /* \"#utility.yul\":13040:13044   */\n      dup2\n        /* \"#utility.yul\":13036:13056   */\n      sub\n        /* \"#utility.yul\":13032:13033   */\n      0x00\n        /* \"#utility.yul\":13021:13030   */\n      dup4\n        /* \"#utility.yul\":13017:13034   */\n      add\n        /* \"#utility.yul\":13010:13057   */\n      mstore\n        /* \"#utility.yul\":13074:13205   */\n      tag_238\n        /* \"#utility.yul\":13200:13204   */\n      dup2\n        /* \"#utility.yul\":13074:13205   */\n      tag_95\n      jump\t// in\n    tag_238:\n        /* \"#utility.yul\":13066:13205   */\n      swap1\n      pop\n        /* \"#utility.yul\":12793:13212   */\n      swap2\n      swap1\n      pop\n      jump\t// out\n\n    auxdata: 0xa26469706673582212208f540c40b50a63475f8b5efc66b93ee83decd10efa374935358f76dc9d88920564736f6c634300081e0033\n}\n",
				"bytecode": {
					"linkReferences": {},
					"object": "60806040525f6001553480156012575f5ffd5b50335f5f6101000a81548173ffffffffffffffffffffffffffffffffffffffff021916908373ffffffffffffffffffffffffffffffffffffffff160217905550610b7f8061005f5f395ff3fe608060405260043610610049575f3560e01c80632e1a7d4d1461004d57806364be5548146100695780639132949314610091578063f14faf6f146100bb578063fb709d2e146100d7575b5f5ffd5b6100676004803603810190610062919061047a565b610116565b005b348015610074575f5ffd5b5061008f600480360381019061008a91906105e1565b61021c565b005b34801561009c575f5ffd5b506100a56102a0565b6040516100b29190610637565b60405180910390f35b6100d560048036038101906100d0919061047a565b6102a6565b005b3480156100e2575f5ffd5b506100fd60048036038101906100f8919061047a565b610365565b60405161010d94939291906106ef565b60405180910390f35b60025f8281526020019081526020015f206001015f9054906101000a900473ffffffffffffffffffffffffffffffffffffffff1673ffffffffffffffffffffffffffffffffffffffff163373ffffffffffffffffffffffffffffffffffffffff16146101b7576040517f08c379a00000000000000000000000000000000000000000000000000000000081526004016101ae90610783565b60405180910390fd5b5f4790503373ffffffffffffffffffffffffffffffffffffffff166108fc8290811502906040515f60405180830381858888f193505050501580156101fe573d5f5f3e3d5ffd5b504760025f8481526020019081526020015f20600201819055505050565b5f60025f60015481526020019081526020015f20905081815f019081610242919061099e565b5033816001015f6101000a81548173ffffffffffffffffffffffffffffffffffffffff021916908373ffffffffffffffffffffffffffffffffffffffff16021790555060015f81548092919061029790610a9a565b91905055505050565b60015481565b5f34905067016345785d8a000034116102f4576040517f08c379a00000000000000000000000000000000000000000000000000000000081526004016102eb90610b2b565b60405180910390fd5b4760025f8481526020019081526020015f20600201819055508060025f8481526020019081526020015f206004015f3373ffffffffffffffffffffffffffffffffffffffff1673ffffffffffffffffffffffffffffffffffffffff1681526020019081526020015f20819055505050565b6002602052805f5260405f205f91509050805f018054610384906107ce565b80601f01602080910402602001604051908101604052809291908181526020018280546103b0906107ce565b80156103fb5780601f106103d2576101008083540402835291602001916103fb565b820191905f5260205f20905b8154815290600101906020018083116103de57829003601f168201915b505050505090806001015f9054906101000a900473ffffffffffffffffffffffffffffffffffffffff16908060020154908060030154905084565b5f604051905090565b5f5ffd5b5f5ffd5b5f819050919050565b61045981610447565b8114610463575f5ffd5b50565b5f8135905061047481610450565b92915050565b5f6020828403121561048f5761048e61043f565b5b5f61049c84828501610466565b91505092915050565b5f5ffd5b5f5ffd5b5f601f19601f8301169050919050565b7f4e487b71000000000000000000000000000000000000000000000000000000005f52604160045260245ffd5b6104f3826104ad565b810181811067ffffffffffffffff82111715610512576105116104bd565b5b80604052505050565b5f610524610436565b905061053082826104ea565b919050565b5f67ffffffffffffffff82111561054f5761054e6104bd565b5b610558826104ad565b9050602081019050919050565b828183375f83830152505050565b5f61058561058084610535565b61051b565b9050828152602081018484840111156105a1576105a06104a9565b5b6105ac848285610565565b509392505050565b5f82601f8301126105c8576105c76104a5565b5b81356105d8848260208601610573565b91505092915050565b5f602082840312156105f6576105f561043f565b5b5f82013567ffffffffffffffff81111561061357610612610443565b5b61061f848285016105b4565b91505092915050565b61063181610447565b82525050565b5f60208201905061064a5f830184610628565b92915050565b5f81519050919050565b5f82825260208201905092915050565b8281835e5f83830152505050565b5f61068282610650565b61068c818561065a565b935061069c81856020860161066a565b6106a5816104ad565b840191505092915050565b5f73ffffffffffffffffffffffffffffffffffffffff82169050919050565b5f6106d9826106b0565b9050919050565b6106e9816106cf565b82525050565b5f6080820190508181035f8301526107078187610678565b905061071660208301866106e0565b6107236040830185610628565b6107306060830184610628565b95945050505050565b7f596f7520617265206e6f74206f776e65720000000000000000000000000000005f82015250565b5f61076d60118361065a565b915061077882610739565b602082019050919050565b5f6020820190508181035f83015261079a81610761565b9050919050565b7f4e487b71000000000000000000000000000000000000000000000000000000005f52602260045260245ffd5b5f60028204905060018216806107e557607f821691505b6020821081036107f8576107f76107a1565b5b50919050565b5f819050815f5260205f209050919050565b5f6020601f8301049050919050565b5f82821b905092915050565b5f6008830261085a7fffffffffffffffffffffffffffffffffffffffffffffffffffffffffffffffff8261081f565b610864868361081f565b95508019841693508086168417925050509392505050565b5f819050919050565b5f61089f61089a61089584610447565b61087c565b610447565b9050919050565b5f819050919050565b6108b883610885565b6108cc6108c4826108a6565b84845461082b565b825550505050565b5f5f905090565b6108e36108d4565b6108ee8184846108af565b505050565b5b81811015610911576109065f826108db565b6001810190506108f4565b5050565b601f82111561095657610927816107fe565b61093084610810565b8101602085101561093f578190505b61095361094b85610810565b8301826108f3565b50505b505050565b5f82821c905092915050565b5f6109765f198460080261095b565b1980831691505092915050565b5f61098e8383610967565b9150826002028217905092915050565b6109a782610650565b67ffffffffffffffff8111156109c0576109bf6104bd565b5b6109ca82546107ce565b6109d5828285610915565b5f60209050601f831160018114610a06575f84156109f4578287015190505b6109fe8582610983565b865550610a65565b601f198416610a14866107fe565b5f5b82811015610a3b57848901518255600182019150602085019450602081019050610a16565b86831015610a585784890151610a54601f891682610967565b8355505b6001600288020188555050505b505050505050565b7f4e487b71000000000000000000000000000000000000000000000000000000005f52601160045260245ffd5b5f610aa482610447565b91507fffffffffffffffffffffffffffffffffffffffffffffffffffffffffffffffff8203610ad657610ad5610a6d565b5b600182019050919050565b7f416d6f756e74206c657373207468616e206d696e696d756d00000000000000005f82015250565b5f610b1560188361065a565b9150610b2082610ae1565b602082019050919050565b5f6020820190508181035f830152610b4281610b09565b905091905056fea26469706673582212208f540c40b50a63475f8b5efc66b93ee83decd10efa374935358f76dc9d88920564736f6c634300081e0033",
					"opcodes": "PUSH1 0x80 PUSH1 0x40 MSTORE PUSH0 PUSH1 0x1 SSTORE CALLVALUE DUP1 ISZERO PUSH1 0x12 JUMPI PUSH0 PUSH0 REVERT JUMPDEST POP CALLER PUSH0 PUSH0 PUSH2 0x100 EXP DUP2 SLOAD DUP2 PUSH20 0xFFFFFFFFFFFFFFFFFFFFFFFFFFFFFFFFFFFFFFFF MUL NOT AND SWAP1 DUP4 PUSH20 0xFFFFFFFFFFFFFFFFFFFFFFFFFFFFFFFFFFFFFFFF AND MUL OR SWAP1 SSTORE POP PUSH2 0xB7F DUP1 PUSH2 0x5F PUSH0 CODECOPY PUSH0 RETURN INVALID PUSH1 0x80 PUSH1 0x40 MSTORE PUSH1 0x4 CALLDATASIZE LT PUSH2 0x49 JUMPI PUSH0 CALLDATALOAD PUSH1 0xE0 SHR DUP1 PUSH4 0x2E1A7D4D EQ PUSH2 0x4D JUMPI DUP1 PUSH4 0x64BE5548 EQ PUSH2 0x69 JUMPI DUP1 PUSH4 0x91329493 EQ PUSH2 0x91 JUMPI DUP1 PUSH4 0xF14FAF6F EQ PUSH2 0xBB JUMPI DUP1 PUSH4 0xFB709D2E EQ PUSH2 0xD7 JUMPI JUMPDEST PUSH0 PUSH0 REVERT JUMPDEST PUSH2 0x67 PUSH1 0x4 DUP1 CALLDATASIZE SUB DUP2 ADD SWAP1 PUSH2 0x62 SWAP2 SWAP1 PUSH2 0x47A JUMP JUMPDEST PUSH2 0x116 JUMP JUMPDEST STOP JUMPDEST CALLVALUE DUP1 ISZERO PUSH2 0x74 JUMPI PUSH0 PUSH0 REVERT JUMPDEST POP PUSH2 0x8F PUSH1 0x4 DUP1 CALLDATASIZE SUB DUP2 ADD SWAP1 PUSH2 0x8A SWAP2 SWAP1 PUSH2 0x5E1 JUMP JUMPDEST PUSH2 0x21C JUMP JUMPDEST STOP JUMPDEST CALLVALUE DUP1 ISZERO PUSH2 0x9C JUMPI PUSH0 PUSH0 REVERT JUMPDEST POP PUSH2 0xA5 PUSH2 0x2A0 JUMP JUMPDEST PUSH1 0x40 MLOAD PUSH2 0xB2 SWAP2 SWAP1 PUSH2 0x637 JUMP JUMPDEST PUSH1 0x40 MLOAD DUP1 SWAP2 SUB SWAP1 RETURN JUMPDEST PUSH2 0xD5 PUSH1 0x4 DUP1 CALLDATASIZE SUB DUP2 ADD SWAP1 PUSH2 0xD0 SWAP2 SWAP1 PUSH2 0x47A JUMP JUMPDEST PUSH2 0x2A6 JUMP JUMPDEST STOP JUMPDEST CALLVALUE DUP1 ISZERO PUSH2 0xE2 JUMPI PUSH0 PUSH0 REVERT JUMPDEST POP PUSH2 0xFD PUSH1 0x4 DUP1 CALLDATASIZE SUB DUP2 ADD SWAP1 PUSH2 0xF8 SWAP2 SWAP1 PUSH2 0x47A JUMP JUMPDEST PUSH2 0x365 JUMP JUMPDEST PUSH1 0x40 MLOAD PUSH2 0x10D SWAP5 SWAP4 SWAP3 SWAP2 SWAP1 PUSH2 0x6EF JUMP JUMPDEST PUSH1 0x40 MLOAD DUP1 SWAP2 SUB SWAP1 RETURN JUMPDEST PUSH1 0x2 PUSH0 DUP3 DUP2 MSTORE PUSH1 0x20 ADD SWAP1 DUP2 MSTORE PUSH1 0x20 ADD PUSH0 KECCAK256 PUSH1 0x1 ADD PUSH0 SWAP1 SLOAD SWAP1 PUSH2 0x100 EXP SWAP1 DIV PUSH20 0xFFFFFFFFFFFFFFFFFFFFFFFFFFFFFFFFFFFFFFFF AND PUSH20 0xFFFFFFFFFFFFFFFFFFFFFFFFFFFFFFFFFFFFFFFF AND CALLER PUSH20 0xFFFFFFFFFFFFFFFFFFFFFFFFFFFFFFFFFFFFFFFF AND EQ PUSH2 0x1B7 JUMPI PUSH1 0x40 MLOAD PUSH32 0x8C379A000000000000000000000000000000000000000000000000000000000 DUP2 MSTORE PUSH1 0x4 ADD PUSH2 0x1AE SWAP1 PUSH2 0x783 JUMP JUMPDEST PUSH1 0x40 MLOAD DUP1 SWAP2 SUB SWAP1 REVERT JUMPDEST PUSH0 SELFBALANCE SWAP1 POP CALLER PUSH20 0xFFFFFFFFFFFFFFFFFFFFFFFFFFFFFFFFFFFFFFFF AND PUSH2 0x8FC DUP3 SWAP1 DUP2 ISZERO MUL SWAP1 PUSH1 0x40 MLOAD PUSH0 PUSH1 0x40 MLOAD DUP1 DUP4 SUB DUP2 DUP6 DUP9 DUP9 CALL SWAP4 POP POP POP POP ISZERO DUP1 ISZERO PUSH2 0x1FE JUMPI RETURNDATASIZE PUSH0 PUSH0 RETURNDATACOPY RETURNDATASIZE PUSH0 REVERT JUMPDEST POP SELFBALANCE PUSH1 0x2 PUSH0 DUP5 DUP2 MSTORE PUSH1 0x20 ADD SWAP1 DUP2 MSTORE PUSH1 0x20 ADD PUSH0 KECCAK256 PUSH1 0x2 ADD DUP2 SWAP1 SSTORE POP POP POP JUMP JUMPDEST PUSH0 PUSH1 0x2 PUSH0 PUSH1 0x1 SLOAD DUP2 MSTORE PUSH1 0x20 ADD SWAP1 DUP2 MSTORE PUSH1 0x20 ADD PUSH0 KECCAK256 SWAP1 POP DUP2 DUP2 PUSH0 ADD SWAP1 DUP2 PUSH2 0x242 SWAP2 SWAP1 PUSH2 0x99E JUMP JUMPDEST POP CALLER DUP2 PUSH1 0x1 ADD PUSH0 PUSH2 0x100 EXP DUP2 SLOAD DUP2 PUSH20 0xFFFFFFFFFFFFFFFFFFFFFFFFFFFFFFFFFFFFFFFF MUL NOT AND SWAP1 DUP4 PUSH20 0xFFFFFFFFFFFFFFFFFFFFFFFFFFFFFFFFFFFFFFFF AND MUL OR SWAP1 SSTORE POP PUSH1 0x1 PUSH0 DUP2 SLOAD DUP1 SWAP3 SWAP2 SWAP1 PUSH2 0x297 SWAP1 PUSH2 0xA9A JUMP JUMPDEST SWAP2 SWAP1 POP SSTORE POP POP POP JUMP JUMPDEST PUSH1 0x1 SLOAD DUP2 JUMP JUMPDEST PUSH0 CALLVALUE SWAP1 POP PUSH8 0x16345785D8A0000 CALLVALUE GT PUSH2 0x2F4 JUMPI PUSH1 0x40 MLOAD PUSH32 0x8C379A000000000000000000000000000000000000000000000000000000000 DUP2 MSTORE PUSH1 0x4 ADD PUSH2 0x2EB SWAP1 PUSH2 0xB2B JUMP JUMPDEST PUSH1 0x40 MLOAD DUP1 SWAP2 SUB SWAP1 REVERT JUMPDEST SELFBALANCE PUSH1 0x2 PUSH0 DUP5 DUP2 MSTORE PUSH1 0x20 ADD SWAP1 DUP2 MSTORE PUSH1 0x20 ADD PUSH0 KECCAK256 PUSH1 0x2 ADD DUP2 SWAP1 SSTORE POP DUP1 PUSH1 0x2 PUSH0 DUP5 DUP2 MSTORE PUSH1 0x20 ADD SWAP1 DUP2 MSTORE PUSH1 0x20 ADD PUSH0 KECCAK256 PUSH1 0x4 ADD PUSH0 CALLER PUSH20 0xFFFFFFFFFFFFFFFFFFFFFFFFFFFFFFFFFFFFFFFF AND PUSH20 0xFFFFFFFFFFFFFFFFFFFFFFFFFFFFFFFFFFFFFFFF AND DUP2 MSTORE PUSH1 0x20 ADD SWAP1 DUP2 MSTORE PUSH1 0x20 ADD PUSH0 KECCAK256 DUP2 SWAP1 SSTORE POP POP POP JUMP JUMPDEST PUSH1 0x2 PUSH1 0x20 MSTORE DUP1 PUSH0 MSTORE PUSH1 0x40 PUSH0 KECCAK256 PUSH0 SWAP2 POP SWAP1 POP DUP1 PUSH0 ADD DUP1 SLOAD PUSH2 0x384 SWAP1 PUSH2 0x7CE JUMP JUMPDEST DUP1 PUSH1 0x1F ADD PUSH1 0x20 DUP1 SWAP2 DIV MUL PUSH1 0x20 ADD PUSH1 0x40 MLOAD SWAP1 DUP2 ADD PUSH1 0x40 MSTORE DUP1 SWAP3 SWAP2 SWAP1 DUP2 DUP2 MSTORE PUSH1 0x20 ADD DUP3 DUP1 SLOAD PUSH2 0x3B0 SWAP1 PUSH2 0x7CE JUMP JUMPDEST DUP1 ISZERO PUSH2 0x3FB JUMPI DUP1 PUSH1 0x1F LT PUSH2 0x3D2 JUMPI PUSH2 0x100 DUP1 DUP4 SLOAD DIV MUL DUP4 MSTORE SWAP2 PUSH1 0x20 ADD SWAP2 PUSH2 0x3FB JUMP JUMPDEST DUP3 ADD SWAP2 SWAP1 PUSH0 MSTORE PUSH1 0x20 PUSH0 KECCAK256 SWAP1 JUMPDEST DUP2 SLOAD DUP2 MSTORE SWAP1 PUSH1 0x1 ADD SWAP1 PUSH1 0x20 ADD DUP1 DUP4 GT PUSH2 0x3DE JUMPI DUP3 SWAP1 SUB PUSH1 0x1F AND DUP3 ADD SWAP2 JUMPDEST POP POP POP POP POP SWAP1 DUP1 PUSH1 0x1 ADD PUSH0 SWAP1 SLOAD SWAP1 PUSH2 0x100 EXP SWAP1 DIV PUSH20 0xFFFFFFFFFFFFFFFFFFFFFFFFFFFFFFFFFFFFFFFF AND SWAP1 DUP1 PUSH1 0x2 ADD SLOAD SWAP1 DUP1 PUSH1 0x3 ADD SLOAD SWAP1 POP DUP5 JUMP JUMPDEST PUSH0 PUSH1 0x40 MLOAD SWAP1 POP SWAP1 JUMP JUMPDEST PUSH0 PUSH0 REVERT JUMPDEST PUSH0 PUSH0 REVERT JUMPDEST PUSH0 DUP2 SWAP1 POP SWAP2 SWAP1 POP JUMP JUMPDEST PUSH2 0x459 DUP2 PUSH2 0x447 JUMP JUMPDEST DUP2 EQ PUSH2 0x463 JUMPI PUSH0 PUSH0 REVERT JUMPDEST POP JUMP JUMPDEST PUSH0 DUP2 CALLDATALOAD SWAP1 POP PUSH2 0x474 DUP2 PUSH2 0x450 JUMP JUMPDEST SWAP3 SWAP2 POP POP JUMP JUMPDEST PUSH0 PUSH1 0x20 DUP3 DUP5 SUB SLT ISZERO PUSH2 0x48F JUMPI PUSH2 0x48E PUSH2 0x43F JUMP JUMPDEST JUMPDEST PUSH0 PUSH2 0x49C DUP5 DUP3 DUP6 ADD PUSH2 0x466 JUMP JUMPDEST SWAP2 POP POP SWAP3 SWAP2 POP POP JUMP JUMPDEST PUSH0 PUSH0 REVERT JUMPDEST PUSH0 PUSH0 REVERT JUMPDEST PUSH0 PUSH1 0x1F NOT PUSH1 0x1F DUP4 ADD AND SWAP1 POP SWAP2 SWAP1 POP JUMP JUMPDEST PUSH32 0x4E487B7100000000000000000000000000000000000000000000000000000000 PUSH0 MSTORE PUSH1 0x41 PUSH1 0x4 MSTORE PUSH1 0x24 PUSH0 REVERT JUMPDEST PUSH2 0x4F3 DUP3 PUSH2 0x4AD JUMP JUMPDEST DUP2 ADD DUP2 DUP2 LT PUSH8 0xFFFFFFFFFFFFFFFF DUP3 GT OR ISZERO PUSH2 0x512 JUMPI PUSH2 0x511 PUSH2 0x4BD JUMP JUMPDEST JUMPDEST DUP1 PUSH1 0x40 MSTORE POP POP POP JUMP JUMPDEST PUSH0 PUSH2 0x524 PUSH2 0x436 JUMP JUMPDEST SWAP1 POP PUSH2 0x530 DUP3 DUP3 PUSH2 0x4EA JUMP JUMPDEST SWAP2 SWAP1 POP JUMP JUMPDEST PUSH0 PUSH8 0xFFFFFFFFFFFFFFFF DUP3 GT ISZERO PUSH2 0x54F JUMPI PUSH2 0x54E PUSH2 0x4BD JUMP JUMPDEST JUMPDEST PUSH2 0x558 DUP3 PUSH2 0x4AD JUMP JUMPDEST SWAP1 POP PUSH1 0x20 DUP2 ADD SWAP1 POP SWAP2 SWAP1 POP JUMP JUMPDEST DUP3 DUP2 DUP4 CALLDATACOPY PUSH0 DUP4 DUP4 ADD MSTORE POP POP POP JUMP JUMPDEST PUSH0 PUSH2 0x585 PUSH2 0x580 DUP5 PUSH2 0x535 JUMP JUMPDEST PUSH2 0x51B JUMP JUMPDEST SWAP1 POP DUP3 DUP2 MSTORE PUSH1 0x20 DUP2 ADD DUP5 DUP5 DUP5 ADD GT ISZERO PUSH2 0x5A1 JUMPI PUSH2 0x5A0 PUSH2 0x4A9 JUMP JUMPDEST JUMPDEST PUSH2 0x5AC DUP5 DUP3 DUP6 PUSH2 0x565 JUMP JUMPDEST POP SWAP4 SWAP3 POP POP POP JUMP JUMPDEST PUSH0 DUP3 PUSH1 0x1F DUP4 ADD SLT PUSH2 0x5C8 JUMPI PUSH2 0x5C7 PUSH2 0x4A5 JUMP JUMPDEST JUMPDEST DUP2 CALLDATALOAD PUSH2 0x5D8 DUP5 DUP3 PUSH1 0x20 DUP7 ADD PUSH2 0x573 JUMP JUMPDEST SWAP2 POP POP SWAP3 SWAP2 POP POP JUMP JUMPDEST PUSH0 PUSH1 0x20 DUP3 DUP5 SUB SLT ISZERO PUSH2 0x5F6 JUMPI PUSH2 0x5F5 PUSH2 0x43F JUMP JUMPDEST JUMPDEST PUSH0 DUP3 ADD CALLDATALOAD PUSH8 0xFFFFFFFFFFFFFFFF DUP2 GT ISZERO PUSH2 0x613 JUMPI PUSH2 0x612 PUSH2 0x443 JUMP JUMPDEST JUMPDEST PUSH2 0x61F DUP5 DUP3 DUP6 ADD PUSH2 0x5B4 JUMP JUMPDEST SWAP2 POP POP SWAP3 SWAP2 POP POP JUMP JUMPDEST PUSH2 0x631 DUP2 PUSH2 0x447 JUMP JUMPDEST DUP3 MSTORE POP POP JUMP JUMPDEST PUSH0 PUSH1 0x20 DUP3 ADD SWAP1 POP PUSH2 0x64A PUSH0 DUP4 ADD DUP5 PUSH2 0x628 JUMP JUMPDEST SWAP3 SWAP2 POP POP JUMP JUMPDEST PUSH0 DUP2 MLOAD SWAP1 POP SWAP2 SWAP1 POP JUMP JUMPDEST PUSH0 DUP3 DUP3 MSTORE PUSH1 0x20 DUP3 ADD SWAP1 POP SWAP3 SWAP2 POP POP JUMP JUMPDEST DUP3 DUP2 DUP4 MCOPY PUSH0 DUP4 DUP4 ADD MSTORE POP POP POP JUMP JUMPDEST PUSH0 PUSH2 0x682 DUP3 PUSH2 0x650 JUMP JUMPDEST PUSH2 0x68C DUP2 DUP6 PUSH2 0x65A JUMP JUMPDEST SWAP4 POP PUSH2 0x69C DUP2 DUP6 PUSH1 0x20 DUP7 ADD PUSH2 0x66A JUMP JUMPDEST PUSH2 0x6A5 DUP2 PUSH2 0x4AD JUMP JUMPDEST DUP5 ADD SWAP2 POP POP SWAP3 SWAP2 POP POP JUMP JUMPDEST PUSH0 PUSH20 0xFFFFFFFFFFFFFFFFFFFFFFFFFFFFFFFFFFFFFFFF DUP3 AND SWAP1 POP SWAP2 SWAP1 POP JUMP JUMPDEST PUSH0 PUSH2 0x6D9 DUP3 PUSH2 0x6B0 JUMP JUMPDEST SWAP1 POP SWAP2 SWAP1 POP JUMP JUMPDEST PUSH2 0x6E9 DUP2 PUSH2 0x6CF JUMP JUMPDEST DUP3 MSTORE POP POP JUMP JUMPDEST PUSH0 PUSH1 0x80 DUP3 ADD SWAP1 POP DUP2 DUP2 SUB PUSH0 DUP4 ADD MSTORE PUSH2 0x707 DUP2 DUP8 PUSH2 0x678 JUMP JUMPDEST SWAP1 POP PUSH2 0x716 PUSH1 0x20 DUP4 ADD DUP7 PUSH2 0x6E0 JUMP JUMPDEST PUSH2 0x723 PUSH1 0x40 DUP4 ADD DUP6 PUSH2 0x628 JUMP JUMPDEST PUSH2 0x730 PUSH1 0x60 DUP4 ADD DUP5 PUSH2 0x628 JUMP JUMPDEST SWAP6 SWAP5 POP POP POP POP POP JUMP JUMPDEST PUSH32 0x596F7520617265206E6F74206F776E6572000000000000000000000000000000 PUSH0 DUP3 ADD MSTORE POP JUMP JUMPDEST PUSH0 PUSH2 0x76D PUSH1 0x11 DUP4 PUSH2 0x65A JUMP JUMPDEST SWAP2 POP PUSH2 0x778 DUP3 PUSH2 0x739 JUMP JUMPDEST PUSH1 0x20 DUP3 ADD SWAP1 POP SWAP2 SWAP1 POP JUMP JUMPDEST PUSH0 PUSH1 0x20 DUP3 ADD SWAP1 POP DUP2 DUP2 SUB PUSH0 DUP4 ADD MSTORE PUSH2 0x79A DUP2 PUSH2 0x761 JUMP JUMPDEST SWAP1 POP SWAP2 SWAP1 POP JUMP JUMPDEST PUSH32 0x4E487B7100000000000000000000000000000000000000000000000000000000 PUSH0 MSTORE PUSH1 0x22 PUSH1 0x4 MSTORE PUSH1 0x24 PUSH0 REVERT JUMPDEST PUSH0 PUSH1 0x2 DUP3 DIV SWAP1 POP PUSH1 0x1 DUP3 AND DUP1 PUSH2 0x7E5 JUMPI PUSH1 0x7F DUP3 AND SWAP2 POP JUMPDEST PUSH1 0x20 DUP3 LT DUP2 SUB PUSH2 0x7F8 JUMPI PUSH2 0x7F7 PUSH2 0x7A1 JUMP JUMPDEST JUMPDEST POP SWAP2 SWAP1 POP JUMP JUMPDEST PUSH0 DUP2 SWAP1 POP DUP2 PUSH0 MSTORE PUSH1 0x20 PUSH0 KECCAK256 SWAP1 POP SWAP2 SWAP1 POP JUMP JUMPDEST PUSH0 PUSH1 0x20 PUSH1 0x1F DUP4 ADD DIV SWAP1 POP SWAP2 SWAP1 POP JUMP JUMPDEST PUSH0 DUP3 DUP3 SHL SWAP1 POP SWAP3 SWAP2 POP POP JUMP JUMPDEST PUSH0 PUSH1 0x8 DUP4 MUL PUSH2 0x85A PUSH32 0xFFFFFFFFFFFFFFFFFFFFFFFFFFFFFFFFFFFFFFFFFFFFFFFFFFFFFFFFFFFFFFFF DUP3 PUSH2 0x81F JUMP JUMPDEST PUSH2 0x864 DUP7 DUP4 PUSH2 0x81F JUMP JUMPDEST SWAP6 POP DUP1 NOT DUP5 AND SWAP4 POP DUP1 DUP7 AND DUP5 OR SWAP3 POP POP POP SWAP4 SWAP3 POP POP POP JUMP JUMPDEST PUSH0 DUP2 SWAP1 POP SWAP2 SWAP1 POP JUMP JUMPDEST PUSH0 PUSH2 0x89F PUSH2 0x89A PUSH2 0x895 DUP5 PUSH2 0x447 JUMP JUMPDEST PUSH2 0x87C JUMP JUMPDEST PUSH2 0x447 JUMP JUMPDEST SWAP1 POP SWAP2 SWAP1 POP JUMP JUMPDEST PUSH0 DUP2 SWAP1 POP SWAP2 SWAP1 POP JUMP JUMPDEST PUSH2 0x8B8 DUP4 PUSH2 0x885 JUMP JUMPDEST PUSH2 0x8CC PUSH2 0x8C4 DUP3 PUSH2 0x8A6 JUMP JUMPDEST DUP5 DUP5 SLOAD PUSH2 0x82B JUMP JUMPDEST DUP3 SSTORE POP POP POP POP JUMP JUMPDEST PUSH0 PUSH0 SWAP1 POP SWAP1 JUMP JUMPDEST PUSH2 0x8E3 PUSH2 0x8D4 JUMP JUMPDEST PUSH2 0x8EE DUP2 DUP5 DUP5 PUSH2 0x8AF JUMP JUMPDEST POP POP POP JUMP JUMPDEST JUMPDEST DUP2 DUP2 LT ISZERO PUSH2 0x911 JUMPI PUSH2 0x906 PUSH0 DUP3 PUSH2 0x8DB JUMP JUMPDEST PUSH1 0x1 DUP2 ADD SWAP1 POP PUSH2 0x8F4 JUMP JUMPDEST POP POP JUMP JUMPDEST PUSH1 0x1F DUP3 GT ISZERO PUSH2 0x956 JUMPI PUSH2 0x927 DUP2 PUSH2 0x7FE JUMP JUMPDEST PUSH2 0x930 DUP5 PUSH2 0x810 JUMP JUMPDEST DUP2 ADD PUSH1 0x20 DUP6 LT ISZERO PUSH2 0x93F JUMPI DUP2 SWAP1 POP JUMPDEST PUSH2 0x953 PUSH2 0x94B DUP6 PUSH2 0x810 JUMP JUMPDEST DUP4 ADD DUP3 PUSH2 0x8F3 JUMP JUMPDEST POP POP JUMPDEST POP POP POP JUMP JUMPDEST PUSH0 DUP3 DUP3 SHR SWAP1 POP SWAP3 SWAP2 POP POP JUMP JUMPDEST PUSH0 PUSH2 0x976 PUSH0 NOT DUP5 PUSH1 0x8 MUL PUSH2 0x95B JUMP JUMPDEST NOT DUP1 DUP4 AND SWAP2 POP POP SWAP3 SWAP2 POP POP JUMP JUMPDEST PUSH0 PUSH2 0x98E DUP4 DUP4 PUSH2 0x967 JUMP JUMPDEST SWAP2 POP DUP3 PUSH1 0x2 MUL DUP3 OR SWAP1 POP SWAP3 SWAP2 POP POP JUMP JUMPDEST PUSH2 0x9A7 DUP3 PUSH2 0x650 JUMP JUMPDEST PUSH8 0xFFFFFFFFFFFFFFFF DUP2 GT ISZERO PUSH2 0x9C0 JUMPI PUSH2 0x9BF PUSH2 0x4BD JUMP JUMPDEST JUMPDEST PUSH2 0x9CA DUP3 SLOAD PUSH2 0x7CE JUMP JUMPDEST PUSH2 0x9D5 DUP3 DUP3 DUP6 PUSH2 0x915 JUMP JUMPDEST PUSH0 PUSH1 0x20 SWAP1 POP PUSH1 0x1F DUP4 GT PUSH1 0x1 DUP2 EQ PUSH2 0xA06 JUMPI PUSH0 DUP5 ISZERO PUSH2 0x9F4 JUMPI DUP3 DUP8 ADD MLOAD SWAP1 POP JUMPDEST PUSH2 0x9FE DUP6 DUP3 PUSH2 0x983 JUMP JUMPDEST DUP7 SSTORE POP PUSH2 0xA65 JUMP JUMPDEST PUSH1 0x1F NOT DUP5 AND PUSH2 0xA14 DUP7 PUSH2 0x7FE JUMP JUMPDEST PUSH0 JUMPDEST DUP3 DUP2 LT ISZERO PUSH2 0xA3B JUMPI DUP5 DUP10 ADD MLOAD DUP3 SSTORE PUSH1 0x1 DUP3 ADD SWAP2 POP PUSH1 0x20 DUP6 ADD SWAP5 POP PUSH1 0x20 DUP2 ADD SWAP1 POP PUSH2 0xA16 JUMP JUMPDEST DUP7 DUP4 LT ISZERO PUSH2 0xA58 JUMPI DUP5 DUP10 ADD MLOAD PUSH2 0xA54 PUSH1 0x1F DUP10 AND DUP3 PUSH2 0x967 JUMP JUMPDEST DUP4 SSTORE POP JUMPDEST PUSH1 0x1 PUSH1 0x2 DUP9 MUL ADD DUP9 SSTORE POP POP POP JUMPDEST POP POP POP POP POP POP JUMP JUMPDEST PUSH32 0x4E487B7100000000000000000000000000000000000000000000000000000000 PUSH0 MSTORE PUSH1 0x11 PUSH1 0x4 MSTORE PUSH1 0x24 PUSH0 REVERT JUMPDEST PUSH0 PUSH2 0xAA4 DUP3 PUSH2 0x447 JUMP JUMPDEST SWAP2 POP PUSH32 0xFFFFFFFFFFFFFFFFFFFFFFFFFFFFFFFFFFFFFFFFFFFFFFFFFFFFFFFFFFFFFFFF DUP3 SUB PUSH2 0xAD6 JUMPI PUSH2 0xAD5 PUSH2 0xA6D JUMP JUMPDEST JUMPDEST PUSH1 0x1 DUP3 ADD SWAP1 POP SWAP2 SWAP1 POP JUMP JUMPDEST PUSH32 0x416D6F756E74206C657373207468616E206D696E696D756D0000000000000000 PUSH0 DUP3 ADD MSTORE POP JUMP JUMPDEST PUSH0 PUSH2 0xB15 PUSH1 0x18 DUP4 PUSH2 0x65A JUMP JUMPDEST SWAP2 POP PUSH2 0xB20 DUP3 PUSH2 0xAE1 JUMP JUMPDEST PUSH1 0x20 DUP3 ADD SWAP1 POP SWAP2 SWAP1 POP JUMP JUMPDEST PUSH0 PUSH1 0x20 DUP3 ADD SWAP1 POP DUP2 DUP2 SUB PUSH0 DUP4 ADD MSTORE PUSH2 0xB42 DUP2 PUSH2 0xB09 JUMP JUMPDEST SWAP1 POP SWAP2 SWAP1 POP JUMP INVALID LOG2 PUSH5 0x6970667358 0x22 SLT KECCAK256 DUP16 SLOAD 0xC BLOCKHASH 0xB5 EXP PUSH4 0x475F8B5E 0xFC PUSH7 0xB93EE83DECD10E STATICCALL CALLDATACOPY BLOBHASH CALLDATALOAD CALLDATALOAD DUP16 PUSH23 0xDC9D88920564736F6C634300081E003300000000000000 "
				},
				"gasEstimates": {
					"creation": {
						"codeDepositCost": "588600",
						"executionCost": "29886",
						"totalCost": "618486"
					},
					"external": {
						"charities(uint256)": "infinite",
						"charityCount()": "2447",
						"createCharity(string)": "infinite",
						"donate(uint256)": "44935",
						"withdraw(uint256)": "infinite"
					}
				},
				"methodIdentifiers": {
					"charities(uint256)": "fb709d2e",
					"charityCount()": "91329493",
					"createCharity(string)": "64be5548",
					"donate(uint256)": "f14faf6f",
					"withdraw(uint256)": "2e1a7d4d"
				}
			},
			"storageLayout": {
				"storage": [
					{
						"astId": 3,
						"contract": "contracts/Charity.sol:charity",
						"label": "owner",
						"offset": 0,
						"slot": "0",
						"type": "t_address"
					},
					{
						"astId": 6,
						"contract": "contracts/Charity.sol:charity",
						"label": "charityCount",
						"offset": 0,
						"slot": "1",
						"type": "t_uint256"
					},
					{
						"astId": 33,
						"contract": "contracts/Charity.sol:charity",
						"label": "charities",
						"offset": 0,
						"slot": "2",
						"type": "t_mapping(t_uint256,t_struct(Charity)28_storage)"
					}
				],
				"types": {
					"t_address": {
						"encoding": "inplace",
						"label": "address",
						"numberOfBytes": "20"
					},
					"t_address_payable": {
						"encoding": "inplace",
						"label": "address payable",
						"numberOfBytes": "20"
					},
					"t_mapping(t_address,t_uint256)": {
						"encoding": "mapping",
						"key": "t_address",
						"label": "mapping(address => uint256)",
						"numberOfBytes": "32",
						"value": "t_uint256"
					},
					"t_mapping(t_uint256,t_struct(Charity)28_storage)": {
						"encoding": "mapping",
						"key": "t_uint256",
						"label": "mapping(uint256 => struct charity.Charity)",
						"numberOfBytes": "32",
						"value": "t_struct(Charity)28_storage"
					},
					"t_string_storage": {
						"encoding": "bytes",
						"label": "string",
						"numberOfBytes": "32"
					},
					"t_struct(Charity)28_storage": {
						"encoding": "inplace",
						"label": "struct charity.Charity",
						"members": [
							{
								"astId": 17,
								"contract": "contracts/Charity.sol:charity",
								"label": "name",
								"offset": 0,
								"slot": "0",
								"type": "t_string_storage"
							},
							{
								"astId": 19,
								"contract": "contracts/Charity.sol:charity",
								"label": "charityAddress",
								"offset": 0,
								"slot": "1",
								"type": "t_address_payable"
							},
							{
								"astId": 21,
								"contract": "contracts/Charity.sol:charity",
								"label": "totalDonations",
								"offset": 0,
								"slot": "2",
								"type": "t_uint256"
							},
							{
								"astId": 23,
								"contract": "contracts/Charity.sol:charity",
								"label": "fundsWithdrawn",
								"offset": 0,
								"slot": "3",
								"type": "t_uint256"
							},
							{
								"astId": 27,
								"contract": "contracts/Charity.sol:charity",
								"label": "donors",
								"offset": 0,
								"slot": "4",
								"type": "t_mapping(t_address,t_uint256)"
							}
						],
						"numberOfBytes": "160"
					},
					"t_uint256": {
						"encoding": "inplace",
						"label": "uint256",
						"numberOfBytes": "32"
					}
				}
			},
			"userdoc": {
				"kind": "user",
				"methods": {},
				"version": 1
			}
		}
	}
}